{
  "_format": "hh-sol-artifact-1",
  "contractName": "MintingMarketPlace",
  "sourceName": "contracts/marketPlace.sol",
  "abi": [
    {
      "inputs": [
        {
          "internalType": "string",
          "name": "name_",
          "type": "string"
        },
        {
          "internalType": "string",
          "name": "symbol_",
          "type": "string"
        }
      ],
      "stateMutability": "nonpayable",
      "type": "constructor"
    },
    {
      "inputs": [],
      "name": "AlreadyOffered",
      "type": "error"
    },
    {
      "inputs": [],
      "name": "ApprovalCallerNotOwnerNorApproved",
      "type": "error"
    },
    {
      "inputs": [],
      "name": "ApprovalQueryForNonexistentToken",
      "type": "error"
    },
    {
      "inputs": [],
      "name": "ApprovalToCurrentOwner",
      "type": "error"
    },
    {
      "inputs": [],
      "name": "ApproveToCaller",
      "type": "error"
    },
    {
      "inputs": [],
      "name": "AuxQueryForZeroAddress",
      "type": "error"
    },
    {
      "inputs": [],
      "name": "BalanceQueryForZeroAddress",
      "type": "error"
    },
    {
      "inputs": [],
      "name": "MintToZeroAddress",
      "type": "error"
    },
    {
      "inputs": [],
      "name": "MintZeroQuantity",
      "type": "error"
    },
    {
      "inputs": [],
      "name": "MintedQueryForZeroAddress",
      "type": "error"
    },
    {
      "inputs": [],
      "name": "NotOfferedNFT",
      "type": "error"
    },
    {
      "inputs": [],
      "name": "OwnerQueryForNonexistentToken",
      "type": "error"
    },
    {
      "inputs": [],
      "name": "TransferCallerNotOwnerNorApproved",
      "type": "error"
    },
    {
      "inputs": [],
      "name": "TransferFromIncorrectOwner",
      "type": "error"
    },
    {
      "inputs": [],
      "name": "TransferToNonERC721ReceiverImplementer",
      "type": "error"
    },
    {
      "inputs": [],
      "name": "TransferToZeroAddress",
      "type": "error"
    },
    {
      "inputs": [],
      "name": "URIQueryForNonexistentToken",
      "type": "error"
    },
    {
      "anonymous": false,
      "inputs": [
        {
          "indexed": true,
          "internalType": "address",
          "name": "owner",
          "type": "address"
        },
        {
          "indexed": true,
          "internalType": "address",
          "name": "approved",
          "type": "address"
        },
        {
          "indexed": true,
          "internalType": "uint256",
          "name": "tokenId",
          "type": "uint256"
        }
      ],
      "name": "Approval",
      "type": "event"
    },
    {
      "anonymous": false,
      "inputs": [
        {
          "indexed": true,
          "internalType": "address",
          "name": "owner",
          "type": "address"
        },
        {
          "indexed": true,
          "internalType": "address",
          "name": "operator",
          "type": "address"
        },
        {
          "indexed": false,
          "internalType": "bool",
          "name": "approved",
          "type": "bool"
        }
      ],
      "name": "ApprovalForAll",
      "type": "event"
    },
    {
      "anonymous": false,
      "inputs": [
        {
          "indexed": true,
          "internalType": "address",
          "name": "previousOwner",
          "type": "address"
        },
        {
          "indexed": true,
          "internalType": "address",
          "name": "newOwner",
          "type": "address"
        }
      ],
      "name": "OwnershipTransferred",
      "type": "event"
    },
    {
      "anonymous": false,
      "inputs": [
        {
          "indexed": true,
          "internalType": "address",
          "name": "from",
          "type": "address"
        },
        {
          "indexed": true,
          "internalType": "address",
          "name": "to",
          "type": "address"
        },
        {
          "indexed": true,
          "internalType": "uint256",
          "name": "tokenId",
          "type": "uint256"
        }
      ],
      "name": "Transfer",
      "type": "event"
    },
    {
      "inputs": [
        {
          "internalType": "address",
          "name": "to",
          "type": "address"
        },
        {
          "internalType": "uint256",
          "name": "tokenId",
          "type": "uint256"
        }
      ],
      "name": "approve",
      "outputs": [],
      "stateMutability": "nonpayable",
      "type": "function"
    },
    {
      "inputs": [
        {
          "internalType": "address",
          "name": "owner",
          "type": "address"
        }
      ],
      "name": "balanceOf",
      "outputs": [
        {
          "internalType": "uint256",
          "name": "",
          "type": "uint256"
        }
      ],
      "stateMutability": "view",
      "type": "function"
    },
    {
      "inputs": [],
      "name": "baseURI",
      "outputs": [
        {
          "internalType": "string",
          "name": "",
          "type": "string"
        }
      ],
      "stateMutability": "view",
      "type": "function"
    },
    {
      "inputs": [
        {
          "internalType": "uint256",
          "name": "tokenId_",
          "type": "uint256"
        }
      ],
      "name": "closeOffering",
      "outputs": [],
      "stateMutability": "nonpayable",
      "type": "function"
    },
    {
      "inputs": [
        {
          "internalType": "uint256",
          "name": "tokenId",
          "type": "uint256"
        }
      ],
      "name": "exists",
      "outputs": [
        {
          "internalType": "bool",
          "name": "",
          "type": "bool"
        }
      ],
      "stateMutability": "view",
      "type": "function"
    },
    {
      "inputs": [
        {
          "internalType": "uint256",
          "name": "tokenId",
          "type": "uint256"
        }
      ],
      "name": "getApproved",
      "outputs": [
        {
          "internalType": "address",
          "name": "",
          "type": "address"
        }
      ],
      "stateMutability": "view",
      "type": "function"
    },
    {
      "inputs": [
        {
          "internalType": "address",
          "name": "owner",
          "type": "address"
        }
      ],
      "name": "getAux",
      "outputs": [
        {
          "internalType": "uint64",
          "name": "",
          "type": "uint64"
        }
      ],
      "stateMutability": "view",
      "type": "function"
    },
    {
      "inputs": [],
      "name": "getNFTByOwner",
      "outputs": [
        {
          "components": [
            {
              "internalType": "uint256",
              "name": "tokenId",
              "type": "uint256"
            },
            {
              "internalType": "bool",
              "name": "forSale",
              "type": "bool"
            }
          ],
          "internalType": "struct MintingMarketPlace.NFTInfo[]",
          "name": "",
          "type": "tuple[]"
        }
      ],
      "stateMutability": "view",
      "type": "function"
    },
    {
      "inputs": [],
      "name": "getOfferedNFT",
      "outputs": [
        {
          "components": [
            {
              "internalType": "address",
              "name": "owner",
              "type": "address"
            },
            {
              "internalType": "uint256",
              "name": "price",
              "type": "uint256"
            },
            {
              "internalType": "uint256",
              "name": "tokenId",
              "type": "uint256"
            },
            {
              "internalType": "string",
              "name": "sign",
              "type": "string"
            },
            {
              "internalType": "bool",
              "name": "forSale",
              "type": "bool"
            }
          ],
          "internalType": "struct MintingMarketPlace.Offering[]",
          "name": "",
          "type": "tuple[]"
        }
      ],
      "stateMutability": "view",
      "type": "function"
    },
    {
      "inputs": [
        {
          "internalType": "uint256",
          "name": "tokenId_",
          "type": "uint256"
        }
      ],
      "name": "getOfferedNFTByTokenID",
      "outputs": [
        {
          "components": [
            {
              "internalType": "address",
              "name": "owner",
              "type": "address"
            },
            {
              "internalType": "uint256",
              "name": "price",
              "type": "uint256"
            },
            {
              "internalType": "uint256",
              "name": "tokenId",
              "type": "uint256"
            },
            {
              "internalType": "string",
              "name": "sign",
              "type": "string"
            },
            {
              "internalType": "bool",
              "name": "forSale",
              "type": "bool"
            }
          ],
          "internalType": "struct MintingMarketPlace.Offering",
          "name": "",
          "type": "tuple"
        }
      ],
      "stateMutability": "view",
      "type": "function"
    },
    {
      "inputs": [
        {
          "internalType": "address",
          "name": "owner",
          "type": "address"
        },
        {
          "internalType": "address",
          "name": "operator",
          "type": "address"
        }
      ],
      "name": "isApprovedForAll",
      "outputs": [
        {
          "internalType": "bool",
          "name": "",
          "type": "bool"
        }
      ],
      "stateMutability": "view",
      "type": "function"
    },
    {
      "inputs": [
        {
          "internalType": "address",
          "name": "to",
          "type": "address"
        },
        {
          "internalType": "uint256",
          "name": "quantity",
          "type": "uint256"
        },
        {
          "internalType": "bytes",
          "name": "_data",
          "type": "bytes"
        },
        {
          "internalType": "bool",
          "name": "safe",
          "type": "bool"
        }
      ],
      "name": "mint",
      "outputs": [],
      "stateMutability": "nonpayable",
      "type": "function"
    },
    {
      "inputs": [],
      "name": "name",
      "outputs": [
        {
          "internalType": "string",
          "name": "",
          "type": "string"
        }
      ],
      "stateMutability": "view",
      "type": "function"
    },
    {
      "inputs": [
        {
          "internalType": "address",
          "name": "owner",
          "type": "address"
        }
      ],
      "name": "numberMinted",
      "outputs": [
        {
          "internalType": "uint256",
          "name": "",
          "type": "uint256"
        }
      ],
      "stateMutability": "view",
      "type": "function"
    },
    {
      "inputs": [],
      "name": "owner",
      "outputs": [
        {
          "internalType": "address",
          "name": "",
          "type": "address"
        }
      ],
      "stateMutability": "view",
      "type": "function"
    },
    {
      "inputs": [
        {
          "internalType": "uint256",
          "name": "tokenId",
          "type": "uint256"
        }
      ],
      "name": "ownerOf",
      "outputs": [
        {
          "internalType": "address",
          "name": "",
          "type": "address"
        }
      ],
      "stateMutability": "view",
      "type": "function"
    },
    {
      "inputs": [
        {
          "internalType": "uint256",
          "name": "tokenId_",
          "type": "uint256"
        },
        {
          "internalType": "uint256",
          "name": "price_",
          "type": "uint256"
        },
        {
          "internalType": "string",
          "name": "sign_",
          "type": "string"
        }
      ],
      "name": "placeOffering",
      "outputs": [],
      "stateMutability": "nonpayable",
      "type": "function"
    },
    {
      "inputs": [],
      "name": "renounceOwnership",
      "outputs": [],
      "stateMutability": "nonpayable",
      "type": "function"
    },
    {
      "inputs": [
        {
          "internalType": "address",
          "name": "to",
          "type": "address"
        },
        {
          "internalType": "uint256",
          "name": "quantity",
          "type": "uint256"
        },
        {
          "internalType": "bytes",
          "name": "_data",
          "type": "bytes"
        }
      ],
      "name": "safeMint",
      "outputs": [],
      "stateMutability": "nonpayable",
      "type": "function"
    },
    {
      "inputs": [
        {
          "internalType": "address",
          "name": "to",
          "type": "address"
        },
        {
          "internalType": "uint256",
          "name": "quantity",
          "type": "uint256"
        }
      ],
      "name": "safeMint",
      "outputs": [],
      "stateMutability": "nonpayable",
      "type": "function"
    },
    {
      "inputs": [
        {
          "internalType": "address",
          "name": "from",
          "type": "address"
        },
        {
          "internalType": "address",
          "name": "to",
          "type": "address"
        },
        {
          "internalType": "uint256",
          "name": "tokenId",
          "type": "uint256"
        }
      ],
      "name": "safeTransferFrom",
      "outputs": [],
      "stateMutability": "nonpayable",
      "type": "function"
    },
    {
      "inputs": [
        {
          "internalType": "address",
          "name": "from",
          "type": "address"
        },
        {
          "internalType": "address",
          "name": "to",
          "type": "address"
        },
        {
          "internalType": "uint256",
          "name": "tokenId",
          "type": "uint256"
        },
        {
          "internalType": "bytes",
          "name": "_data",
          "type": "bytes"
        }
      ],
      "name": "safeTransferFrom",
      "outputs": [],
      "stateMutability": "nonpayable",
      "type": "function"
    },
    {
      "inputs": [
        {
          "internalType": "address",
          "name": "operator",
          "type": "address"
        },
        {
          "internalType": "bool",
          "name": "approved",
          "type": "bool"
        }
      ],
      "name": "setApprovalForAll",
      "outputs": [],
      "stateMutability": "nonpayable",
      "type": "function"
    },
    {
      "inputs": [
        {
          "internalType": "address",
          "name": "owner",
          "type": "address"
        },
        {
          "internalType": "uint64",
          "name": "aux",
          "type": "uint64"
        }
      ],
      "name": "setAux",
      "outputs": [],
      "stateMutability": "nonpayable",
      "type": "function"
    },
    {
      "inputs": [
        {
          "internalType": "string",
          "name": "_tokenbaseURI",
          "type": "string"
        }
      ],
      "name": "setBaseURI",
      "outputs": [],
      "stateMutability": "nonpayable",
      "type": "function"
    },
    {
      "inputs": [
        {
          "internalType": "bytes4",
          "name": "interfaceId",
          "type": "bytes4"
        }
      ],
      "name": "supportsInterface",
      "outputs": [
        {
          "internalType": "bool",
          "name": "",
          "type": "bool"
        }
      ],
      "stateMutability": "view",
      "type": "function"
    },
    {
      "inputs": [],
      "name": "symbol",
      "outputs": [
        {
          "internalType": "string",
          "name": "",
          "type": "string"
        }
      ],
      "stateMutability": "view",
      "type": "function"
    },
    {
      "inputs": [
        {
          "internalType": "uint256",
          "name": "tokenId",
          "type": "uint256"
        }
      ],
      "name": "tokenURI",
      "outputs": [
        {
          "internalType": "string",
          "name": "",
          "type": "string"
        }
      ],
      "stateMutability": "view",
      "type": "function"
    },
    {
      "inputs": [],
      "name": "totalSupply",
      "outputs": [
        {
          "internalType": "uint256",
          "name": "",
          "type": "uint256"
        }
      ],
      "stateMutability": "view",
      "type": "function"
    },
    {
      "inputs": [
        {
          "internalType": "address",
          "name": "from",
          "type": "address"
        },
        {
          "internalType": "address",
          "name": "to",
          "type": "address"
        },
        {
          "internalType": "uint256",
          "name": "tokenId",
          "type": "uint256"
        }
      ],
      "name": "transferFrom",
      "outputs": [],
      "stateMutability": "nonpayable",
      "type": "function"
    },
    {
      "inputs": [
        {
          "internalType": "address",
          "name": "newOwner",
          "type": "address"
        }
      ],
      "name": "transferOwnership",
      "outputs": [],
      "stateMutability": "nonpayable",
      "type": "function"
    }
  ],
  "bytecode": "0x60806040523480156200001157600080fd5b50604051620025db380380620025db833981016040819052620000349162000226565b818162000041336200007d565b815162000056906004906020850190620000cd565b5080516200006c906005906020840190620000cd565b50506001600a5550620002e0915050565b600080546001600160a01b038381166001600160a01b0319831681178455604051919092169283917f8be0079c531659141344cd1fd0a4f28419497f9722a3daafe3b4186f6b6457e09190a35050565b828054620000db906200028d565b90600052602060002090601f016020900481019282620000ff57600085556200014a565b82601f106200011a57805160ff19168380011785556200014a565b828001600101855582156200014a579182015b828111156200014a5782518255916020019190600101906200012d565b50620001589291506200015c565b5090565b5b808211156200015857600081556001016200015d565b600082601f83011262000184578081fd5b81516001600160401b0380821115620001a157620001a1620002ca565b604051601f8301601f19908116603f01168101908282118183101715620001cc57620001cc620002ca565b81604052838152602092508683858801011115620001e8578485fd5b8491505b838210156200020b5785820183015181830184015290820190620001ec565b838211156200021c57848385830101525b9695505050505050565b6000806040838503121562000239578182fd5b82516001600160401b038082111562000250578384fd5b6200025e8683870162000173565b9350602085015191508082111562000274578283fd5b50620002838582860162000173565b9150509250929050565b600181811c90821680620002a257607f821691505b60208210811415620002c457634e487b7160e01b600052602260045260246000fd5b50919050565b634e487b7160e01b600052604160045260246000fd5b6122eb80620002f06000396000f3fe608060405234801561001057600080fd5b50600436106101e55760003560e01c80638832e6e31161010f578063b88d4fde116100a2578063c87b56dd11610071578063c87b56dd14610425578063dc33e68114610438578063e985e9c51461044b578063f2fde38b1461048757600080fd5b8063b88d4fde146103b2578063bf0b175e146103c5578063c24a081b146103f0578063c65f05dd1461040557600080fd5b8063a1d4646f116100de578063a1d4646f14610366578063a22cb46514610379578063ad9df9c71461038c578063b36ef9181461039f57600080fd5b80638832e6e3146103275780638da5cb5b1461033a57806395d89b411461034b578063a14481941461035357600080fd5b806342842e0e116101875780636352211e116101565780636352211e146102f15780636c0360eb1461030457806370a082311461030c578063715018a61461031f57600080fd5b806342842e0e146102a5578063453ab141146102b85780634f558e79146102cb57806355f804b3146102de57600080fd5b8063081812fc116101c3578063081812fc1461023c578063095ea7b31461026757806318160ddd1461027c57806323b872dd1461029257600080fd5b806301ffc9a7146101ea57806303976f761461021257806306fdde0314610227575b600080fd5b6101fd6101f8366004611ebe565b61049a565b60405190151581526020015b60405180910390f35b61021a6104ec565b6040516102099190612060565b61022f610649565b6040516102099190612112565b61024f61024a366004611f28565b6106db565b6040516001600160a01b039091168152602001610209565b61027a610275366004611d9b565b61071f565b005b600354600254035b604051908152602001610209565b61027a6102a0366004611cd2565b6107ad565b61027a6102b3366004611cd2565b6107b8565b61027a6102c6366004611e7d565b6107d3565b6101fd6102d9366004611f28565b6107e1565b61027a6102ec366004611ef6565b6107ec565b61024f6102ff366004611f28565b610832565b61022f610844565b61028461031a366004611c86565b610853565b61027a6108a1565b61027a610335366004611dc4565b6108d7565b6000546001600160a01b031661024f565b61022f6108e2565b61027a610361366004611d9b565b6108f1565b61027a610374366004611f28565b6108fb565b61027a610387366004611d72565b610a47565b61027a61039a366004611e18565b610add565b61027a6103ad366004611f40565b610aef565b61027a6103c0366004611d0d565b610cc1565b6103d86103d3366004611c86565b610cf5565b6040516001600160401b039091168152602001610209565b6103f8610d00565b60405161020991906120b1565b610418610413366004611f28565b610ed0565b604051610209919061215a565b61022f610433366004611f28565b61100c565b610284610446366004611c86565b611091565b6101fd610459366004611ca0565b6001600160a01b03918216600090815260096020908152604080832093909416825291909152205460ff1690565b61027a610495366004611c86565b61109c565b60006001600160e01b031982166380ac58cd60e01b14806104cb57506001600160e01b03198216635b5e139f60e01b145b806104e657506301ffc9a760e01b6001600160e01b03198316145b92915050565b60603360006104fa82610853565b90506000816001600160401b0381111561052457634e487b7160e01b600052604160045260246000fd5b60405190808252806020026020018201604052801561056957816020015b60408051808201909152600080825260208201528152602001906001900390816105425790505b50905081610578579392505050565b6000805b60025482101561063f57846001600160a01b031661059983610832565b6001600160a01b0316141561062d576000828152600c6020526040902060040154835160ff909116908490839081106105e257634e487b7160e01b600052603260045260246000fd5b6020908102919091018101519115159101528183826106008161222e565b93508151811061062057634e487b7160e01b600052603260045260246000fd5b6020908102919091010151525b816106378161222e565b92505061057c565b5090949350505050565b606060048054610658906121f3565b80601f0160208091040260200160405190810160405280929190818152602001828054610684906121f3565b80156106d15780601f106106a6576101008083540402835291602001916106d1565b820191906000526020600020905b8154815290600101906020018083116106b457829003601f168201915b5050505050905090565b60006106e682611137565b610703576040516333d1c03960e21b815260040160405180910390fd5b506000908152600860205260409020546001600160a01b031690565b600061072a82610832565b9050806001600160a01b0316836001600160a01b0316141561075f5760405163250fdee360e21b815260040160405180910390fd5b336001600160a01b0382161480159061077f575061077d8133610459565b155b1561079d576040516367d9dca160e11b815260040160405180910390fd5b6107a8838383611163565b505050565b6107a88383836111bf565b6107a883838360405180602001604052806000815250610cc1565b6107dd82826113e0565b5050565b60006104e682611137565b6000546001600160a01b0316331461081f5760405162461bcd60e51b815260040161081690612125565b60405180910390fd5b80516107dd906001906020840190611b01565b600061083d82611446565b5192915050565b606061084e611561565b905090565b60006001600160a01b03821661087c576040516323d3ad8160e21b815260040160405180910390fd5b506001600160a01b03166000908152600760205260409020546001600160401b031690565b6000546001600160a01b031633146108cb5760405162461bcd60e51b815260040161081690612125565b6108d56000611570565b565b6107a88383836115c0565b606060058054610658906121f3565b6107dd82826115cd565b6002600a54141561094e5760405162461bcd60e51b815260206004820152601f60248201527f5265656e7472616e637947756172643a207265656e7472616e742063616c6c006044820152606401610816565b6002600a55338161095e81610832565b6001600160a01b0316826001600160a01b0316146109be5760405162461bcd60e51b815260206004820181905260248201527f417a756b693a2063616c6c6572206973206e6f7420746f6b656e206f776e65726044820152606401610816565b6000838152600c602052604090206004015460ff166109f057604051633edeeb1560e11b815260040160405180910390fd5b600d8054906000610a00836121dc565b9091555050336000908152600b60205260408120805491610a20836121dc565b909155505050600091825250600c60205260409020600401805460ff191690556001600a55565b6001600160a01b038216331415610a715760405163b06307db60e01b815260040160405180910390fd5b3360008181526009602090815260408083206001600160a01b03871680855290835292819020805460ff191686151590811790915590519081529192917f17307eab39ab6107e8899845ad3d59bd9653f200f220920489ca2b5937696c31910160405180910390a35050565b610ae9848484846115e7565b50505050565b6002600a541415610b425760405162461bcd60e51b815260206004820152601f60248201527f5265656e7472616e637947756172643a207265656e7472616e742063616c6c006044820152606401610816565b6002600a553383610b5281610832565b6001600160a01b0316826001600160a01b031614610bb25760405162461bcd60e51b815260206004820181905260248201527f417a756b693a2063616c6c6572206973206e6f7420746f6b656e206f776e65726044820152606401610816565b6000858152600c602052604090206004015460ff16151560011415610bea57604051632b99245b60e11b815260040160405180910390fd5b600d8054906000610bfa8361222e565b9091555050336000908152600b60205260408120805491610c1a8361222e565b90915550506040805160a08101825233815260208082018781528284018981526060840188815260016080860181905260008c8152600c865296909620855181546001600160a01b0319166001600160a01b0390911617815592519583019590955551600282015592518051929392610c999260038501920190611b01565b50608091909101516004909101805460ff191691151591909117905550506001600a55505050565b610ccc8484846111bf565b610cd88484848461175a565b610ae9576040516368d2bf6b60e11b815260040160405180910390fd5b60006104e682611869565b60606000600d546001600160401b03811115610d2c57634e487b7160e01b600052604160045260246000fd5b604051908082528060200260200182016040528015610d6557816020015b610d52611b85565b815260200190600190039081610d4a5790505b5090506000805b600254821015610ec8576000828152600c602052604090206004015460ff16151560011415610eb6576000828152600c6020908152604091829020825160a08101845281546001600160a01b03168152600182015492810192909252600281015492820192909252600382018054919291606084019190610dec906121f3565b80601f0160208091040260200160405190810160405280929190818152602001828054610e18906121f3565b8015610e655780601f10610e3a57610100808354040283529160200191610e65565b820191906000526020600020905b815481529060010190602001808311610e4857829003601f168201915b50505091835250506004919091015460ff1615156020909101528382610e8a8161222e565b935081518110610eaa57634e487b7160e01b600052603260045260246000fd5b60200260200101819052505b81610ec08161222e565b925050610d6c565b509092915050565b610ed8611b85565b6000828152600c60209081526040808320815160a08101835281546001600160a01b03168152600182015493810193909352600281015491830191909152600381018054606084019190610f2b906121f3565b80601f0160208091040260200160405190810160405280929190818152602001828054610f57906121f3565b8015610fa45780601f10610f7957610100808354040283529160200191610fa4565b820191906000526020600020905b815481529060010190602001808311610f8757829003601f168201915b50505091835250506004919091015460ff161515602090910152608081015190915015156001146104e65760405162461bcd60e51b81526020600482015260126024820152712737ba1037b33332b932b2103a37b5b2b71760711b6044820152606401610816565b606061101782611137565b61103457604051630a14c4b560e41b815260040160405180910390fd5b600061103e611561565b905080516000141561105f576040518060200160405280600081525061108a565b80611069846118be565b60405160200161107a929190611ff4565b6040516020818303038152906040525b9392505050565b60006104e6826119d7565b6000546001600160a01b031633146110c65760405162461bcd60e51b815260040161081690612125565b6001600160a01b03811661112b5760405162461bcd60e51b815260206004820152602660248201527f4f776e61626c653a206e6577206f776e657220697320746865207a65726f206160448201526564647265737360d01b6064820152608401610816565b61113481611570565b50565b6000600254821080156104e6575050600090815260066020526040902054600160e01b900460ff161590565b60008281526008602052604080822080546001600160a01b0319166001600160a01b0387811691821790925591518593918516917f8c5be1e5ebec7d5bd14f71427d1e84f3dd0314c0f7b2291e5b200ac8c7c3b92591a4505050565b60006111ca82611446565b80519091506000906001600160a01b0316336001600160a01b031614806111f8575081516111f89033610459565b80611213575033611208846106db565b6001600160a01b0316145b90508061123357604051632ce44b5f60e11b815260040160405180910390fd5b846001600160a01b031682600001516001600160a01b0316146112685760405162a1148160e81b815260040160405180910390fd5b6001600160a01b03841661128f57604051633a954ecd60e21b815260040160405180910390fd5b61129c8585856001611a2c565b6112ac6000848460000151611163565b6001600160a01b038581166000908152600760209081526040808320805467ffffffffffffffff198082166001600160401b0392831660001901831617909255898616808652838620805493841693831660019081018416949094179055898652600690945282852080546001600160e01b031916909417600160a01b4290921691909102179092559086018083529120549091166113965760025481101561139657825160008281526006602090815260409091208054918601516001600160401b0316600160a01b026001600160e01b03199092166001600160a01b03909316929092171790555b5082846001600160a01b0316866001600160a01b03167fddf252ad1be2c89b69c2b068fc378daa952ba7f163c4a11628f55a4df523b3ef60405160405180910390a45b5050505050565b6001600160a01b0382166114075760405163561b93dd60e11b815260040160405180910390fd5b6001600160a01b03909116600090815260076020526040902080546001600160401b03909216600160c01b026001600160c01b03909216919091179055565b6040805160608101825260008082526020820181905291810191909152600254829081101561154857600081815260066020908152604091829020825160608101845290546001600160a01b0381168252600160a01b81046001600160401b031692820192909252600160e01b90910460ff161515918101829052906115465780516001600160a01b0316156114dd579392505050565b5060001901600081815260066020908152604091829020825160608101845290546001600160a01b038116808352600160a01b82046001600160401b031693830193909352600160e01b900460ff1615159281019290925215611541579392505050565b6114dd565b505b604051636f96cda160e11b815260040160405180910390fd5b606060018054610658906121f3565b600080546001600160a01b038381166001600160a01b0319831681178455604051919092169283917f8be0079c531659141344cd1fd0a4f28419497f9722a3daafe3b4186f6b6457e09190a35050565b6107a883838360016115e7565b6107dd8282604051806020016040528060008152506115c0565b6002546001600160a01b03851661161057604051622e076360e81b815260040160405180910390fd5b8361162e5760405163b562e8dd60e01b815260040160405180910390fd5b61163b6000868387611a2c565b6001600160a01b038516600081815260076020908152604080832080546fffffffffffffffffffffffffffffffff1981166001600160401b038083168c018116918217600160401b67ffffffffffffffff1990941690921783900481168c018116909202179091558584526006909252822080546001600160e01b031916909317600160a01b42909216919091021790915581905b858110156117515760405182906001600160a01b038916906000907fddf252ad1be2c89b69c2b068fc378daa952ba7f163c4a11628f55a4df523b3ef908290a48380156117275750611725600088848861175a565b155b15611745576040516368d2bf6b60e11b815260040160405180910390fd5b600191820191016116d0565b506002556113d9565b60006001600160a01b0384163b1561185d57604051630a85bd0160e11b81526001600160a01b0385169063150b7a029061179e903390899088908890600401612023565b602060405180830381600087803b1580156117b857600080fd5b505af19250505080156117e8575060408051601f3d908101601f191682019092526117e591810190611eda565b60015b611843573d808015611816576040519150601f19603f3d011682016040523d82523d6000602084013e61181b565b606091505b50805161183b576040516368d2bf6b60e11b815260040160405180910390fd5b805181602001fd5b6001600160e01b031916630a85bd0160e11b149050611861565b5060015b949350505050565b60006001600160a01b0382166118925760405163561b93dd60e11b815260040160405180910390fd5b506001600160a01b0316600090815260076020526040902054600160c01b90046001600160401b031690565b6060816118e25750506040805180820190915260018152600360fc1b602082015290565b8160005b811561190c57806118f68161222e565b91506119059050600a83612185565b91506118e6565b6000816001600160401b0381111561193457634e487b7160e01b600052604160045260246000fd5b6040519080825280601f01601f19166020018201604052801561195e576020820181803683370190505b5090505b841561186157611973600183612199565b9150611980600a86612249565b61198b90603061216d565b60f81b8183815181106119ae57634e487b7160e01b600052603260045260246000fd5b60200101906001600160f81b031916908160001a9053506119d0600a86612185565b9450611962565b60006001600160a01b038216611a00576040516335ebb31960e01b815260040160405180910390fd5b506001600160a01b0316600090815260076020526040902054600160401b90046001600160401b031690565b826001600160a01b0316846001600160a01b03161415611a8e5760405162461bcd60e51b815260206004820152601d60248201527f43616e2774207472616e7366657220746f2073616d65206f776e65722e0000006044820152606401610816565b8060011415610ae9576000828152600c602052604090206004015460ff16151560011415610ae9576000828152600c6020526040812080546001600160a01b0319166001600160a01b038616178155600401805460ff19169055600d805491611af6836121dc565b919050555050505050565b828054611b0d906121f3565b90600052602060002090601f016020900481019282611b2f5760008555611b75565b82601f10611b4857805160ff1916838001178555611b75565b82800160010185558215611b75579182015b82811115611b75578251825591602001919060010190611b5a565b50611b81929150611bbf565b5090565b6040518060a0016040528060006001600160a01b031681526020016000815260200160008152602001606081526020016000151581525090565b5b80821115611b815760008155600101611bc0565b80356001600160a01b0381168114611beb57600080fd5b919050565b80358015158114611beb57600080fd5b600082601f830112611c10578081fd5b81356001600160401b0380821115611c2a57611c2a612289565b604051601f8301601f19908116603f01168101908282118183101715611c5257611c52612289565b81604052838152866020858801011115611c6a578485fd5b8360208701602083013792830160200193909352509392505050565b600060208284031215611c97578081fd5b61108a82611bd4565b60008060408385031215611cb2578081fd5b611cbb83611bd4565b9150611cc960208401611bd4565b90509250929050565b600080600060608486031215611ce6578081fd5b611cef84611bd4565b9250611cfd60208501611bd4565b9150604084013590509250925092565b60008060008060808587031215611d22578081fd5b611d2b85611bd4565b9350611d3960208601611bd4565b92506040850135915060608501356001600160401b03811115611d5a578182fd5b611d6687828801611c00565b91505092959194509250565b60008060408385031215611d84578182fd5b611d8d83611bd4565b9150611cc960208401611bf0565b60008060408385031215611dad578182fd5b611db683611bd4565b946020939093013593505050565b600080600060608486031215611dd8578283fd5b611de184611bd4565b92506020840135915060408401356001600160401b03811115611e02578182fd5b611e0e86828701611c00565b9150509250925092565b60008060008060808587031215611e2d578384fd5b611e3685611bd4565b93506020850135925060408501356001600160401b03811115611e57578283fd5b611e6387828801611c00565b925050611e7260608601611bf0565b905092959194509250565b60008060408385031215611e8f578182fd5b611e9883611bd4565b915060208301356001600160401b0381168114611eb3578182fd5b809150509250929050565b600060208284031215611ecf578081fd5b813561108a8161229f565b600060208284031215611eeb578081fd5b815161108a8161229f565b600060208284031215611f07578081fd5b81356001600160401b03811115611f1c578182fd5b61186184828501611c00565b600060208284031215611f39578081fd5b5035919050565b600080600060608486031215611f54578081fd5b833592506020840135915060408401356001600160401b03811115611e02578182fd5b60008151808452611f8f8160208601602086016121b0565b601f01601f19169290920160200192915050565b60018060a01b03815116825260208101516020830152604081015160408301526000606082015160a06060850152611fde60a0850182611f77565b6080938401511515949093019390935250919050565b600083516120068184602088016121b0565b83519083019061201a8183602088016121b0565b01949350505050565b6001600160a01b038581168252841660208201526040810183905260806060820181905260009061205690830184611f77565b9695505050505050565b602080825282518282018190526000919060409081850190868401855b828110156120a457815180518552860151151586850152928401929085019060010161207d565b5091979650505050505050565b6000602080830181845280855180835260408601915060408160051b8701019250838701855b8281101561210557603f198886030184526120f3858351611fa3565b945092850192908501906001016120d7565b5092979650505050505050565b60208152600061108a6020830184611f77565b6020808252818101527f4f776e61626c653a2063616c6c6572206973206e6f7420746865206f776e6572604082015260600190565b60208152600061108a6020830184611fa3565b600082198211156121805761218061225d565b500190565b60008261219457612194612273565b500490565b6000828210156121ab576121ab61225d565b500390565b60005b838110156121cb5781810151838201526020016121b3565b83811115610ae95750506000910152565b6000816121eb576121eb61225d565b506000190190565b600181811c9082168061220757607f821691505b6020821081141561222857634e487b7160e01b600052602260045260246000fd5b50919050565b60006000198214156122425761224261225d565b5060010190565b60008261225857612258612273565b500690565b634e487b7160e01b600052601160045260246000fd5b634e487b7160e01b600052601260045260246000fd5b634e487b7160e01b600052604160045260246000fd5b6001600160e01b03198116811461113457600080fdfea264697066735822122047cb83570203a567d99770e0538afcb10e479cd5b7ca9f8ea33f45416e9831f564736f6c63430008040033",
  "linkReferences": {},
  "deployedLinkReferences": {}
}