{
   "_format": "hh-sol-artifact-1",
   "contractName": "ERC721AMock",
   "sourceName": "contracts/ERC721A/mocks/ERC721AMock.sol",
   "abi": [
      {
         "inputs": [
            {
               "internalType": "string",
               "name": "name_",
               "type": "string"
            },
            {
               "internalType": "string",
               "name": "symbol_",
               "type": "string"
            }
         ],
         "stateMutability": "nonpayable",
         "type": "constructor"
      },
      {
         "inputs": [],
         "name": "AlreadyOffered",
         "type": "error"
      },
      {
         "inputs": [],
         "name": "ApprovalCallerNotOwnerNorApproved",
         "type": "error"
      },
      {
         "inputs": [],
         "name": "ApprovalQueryForNonexistentToken",
         "type": "error"
      },
      {
         "inputs": [],
         "name": "ApprovalToCurrentOwner",
         "type": "error"
      },
      {
         "inputs": [],
         "name": "ApproveToCaller",
         "type": "error"
      },
      {
         "inputs": [],
         "name": "AuxQueryForZeroAddress",
         "type": "error"
      },
      {
         "inputs": [],
         "name": "BalanceQueryForZeroAddress",
         "type": "error"
      },
      {
         "inputs": [],
         "name": "MintToZeroAddress",
         "type": "error"
      },
      {
         "inputs": [],
         "name": "MintZeroQuantity",
         "type": "error"
      },
      {
         "inputs": [],
         "name": "MintedQueryForZeroAddress",
         "type": "error"
      },
      {
         "inputs": [],
         "name": "NotOfferedNFT",
         "type": "error"
      },
      {
         "inputs": [],
         "name": "OwnerQueryForNonexistentToken",
         "type": "error"
      },
      {
         "inputs": [],
         "name": "TransferCallerNotOwnerNorApproved",
         "type": "error"
      },
      {
         "inputs": [],
         "name": "TransferFromIncorrectOwner",
         "type": "error"
      },
      {
         "inputs": [],
         "name": "TransferToNonERC721ReceiverImplementer",
         "type": "error"
      },
      {
         "inputs": [],
         "name": "TransferToZeroAddress",
         "type": "error"
      },
      {
         "inputs": [],
         "name": "URIQueryForNonexistentToken",
         "type": "error"
      },
      {
         "anonymous": false,
         "inputs": [
            {
               "indexed": true,
               "internalType": "address",
               "name": "owner",
               "type": "address"
            },
            {
               "indexed": true,
               "internalType": "address",
               "name": "approved",
               "type": "address"
            },
            {
               "indexed": true,
               "internalType": "uint256",
               "name": "tokenId",
               "type": "uint256"
            }
         ],
         "name": "Approval",
         "type": "event"
      },
      {
         "anonymous": false,
         "inputs": [
            {
               "indexed": true,
               "internalType": "address",
               "name": "owner",
               "type": "address"
            },
            {
               "indexed": true,
               "internalType": "address",
               "name": "operator",
               "type": "address"
            },
            {
               "indexed": false,
               "internalType": "bool",
               "name": "approved",
               "type": "bool"
            }
         ],
         "name": "ApprovalForAll",
         "type": "event"
      },
      {
         "anonymous": false,
         "inputs": [
            {
               "indexed": true,
               "internalType": "address",
               "name": "previousOwner",
               "type": "address"
            },
            {
               "indexed": true,
               "internalType": "address",
               "name": "newOwner",
               "type": "address"
            }
         ],
         "name": "OwnershipTransferred",
         "type": "event"
      },
      {
         "anonymous": false,
         "inputs": [
            {
               "indexed": true,
               "internalType": "address",
               "name": "from",
               "type": "address"
            },
            {
               "indexed": true,
               "internalType": "address",
               "name": "to",
               "type": "address"
            },
            {
               "indexed": true,
               "internalType": "uint256",
               "name": "tokenId",
               "type": "uint256"
            }
         ],
         "name": "Transfer",
         "type": "event"
      },
      {
         "inputs": [
            {
               "internalType": "address",
               "name": "to",
               "type": "address"
            },
            {
               "internalType": "uint256",
               "name": "tokenId",
               "type": "uint256"
            }
         ],
         "name": "approve",
         "outputs": [],
         "stateMutability": "nonpayable",
         "type": "function"
      },
      {
         "inputs": [
            {
               "internalType": "address",
               "name": "owner",
               "type": "address"
            }
         ],
         "name": "balanceOf",
         "outputs": [
            {
               "internalType": "uint256",
               "name": "",
               "type": "uint256"
            }
         ],
         "stateMutability": "view",
         "type": "function"
      },
      {
         "inputs": [],
         "name": "baseURI",
         "outputs": [
            {
               "internalType": "string",
               "name": "",
               "type": "string"
            }
         ],
         "stateMutability": "view",
         "type": "function"
      },
      {
         "inputs": [
            {
               "internalType": "uint256",
               "name": "tokenId_",
               "type": "uint256"
            }
         ],
         "name": "closeOffering",
         "outputs": [],
         "stateMutability": "nonpayable",
         "type": "function"
      },
      {
         "inputs": [
            {
               "internalType": "uint256",
               "name": "tokenId",
               "type": "uint256"
            }
         ],
         "name": "exists",
         "outputs": [
            {
               "internalType": "bool",
               "name": "",
               "type": "bool"
            }
         ],
         "stateMutability": "view",
         "type": "function"
      },
      {
         "inputs": [
            {
               "internalType": "uint256",
               "name": "tokenId",
               "type": "uint256"
            }
         ],
         "name": "getApproved",
         "outputs": [
            {
               "internalType": "address",
               "name": "",
               "type": "address"
            }
         ],
         "stateMutability": "view",
         "type": "function"
      },
      {
         "inputs": [
            {
               "internalType": "address",
               "name": "owner",
               "type": "address"
            }
         ],
         "name": "getAux",
         "outputs": [
            {
               "internalType": "uint64",
               "name": "",
               "type": "uint64"
            }
         ],
         "stateMutability": "view",
         "type": "function"
      },
      {
         "inputs": [],
         "name": "getNFTByOwner",
         "outputs": [
            {
               "internalType": "uint256[]",
               "name": "",
               "type": "uint256[]"
            }
         ],
         "stateMutability": "view",
         "type": "function"
      },
      {
         "inputs": [],
         "name": "getOfferedNFT",
         "outputs": [
            {
               "components": [
                  {
                     "internalType": "address",
                     "name": "owner",
                     "type": "address"
                  },
                  {
                     "internalType": "uint256",
                     "name": "price",
                     "type": "uint256"
                  },
                  {
                     "internalType": "uint256",
                     "name": "tokenId",
                     "type": "uint256"
                  },
                  {
                     "internalType": "bool",
                     "name": "status",
                     "type": "bool"
                  }
               ],
               "internalType": "struct ERC721AMock.Offering[]",
               "name": "",
               "type": "tuple[]"
            }
         ],
         "stateMutability": "view",
         "type": "function"
      },
      {
         "inputs": [
            {
               "internalType": "address",
               "name": "owner",
               "type": "address"
            },
            {
               "internalType": "address",
               "name": "operator",
               "type": "address"
            }
         ],
         "name": "isApprovedForAll",
         "outputs": [
            {
               "internalType": "bool",
               "name": "",
               "type": "bool"
            }
         ],
         "stateMutability": "view",
         "type": "function"
      },
      {
         "inputs": [
            {
               "internalType": "address",
               "name": "to",
               "type": "address"
            },
            {
               "internalType": "uint256",
               "name": "quantity",
               "type": "uint256"
            },
            {
               "internalType": "bytes",
               "name": "_data",
               "type": "bytes"
            },
            {
               "internalType": "bool",
               "name": "safe",
               "type": "bool"
            }
         ],
         "name": "mint",
         "outputs": [],
         "stateMutability": "nonpayable",
         "type": "function"
      },
      {
         "inputs": [],
         "name": "name",
         "outputs": [
            {
               "internalType": "string",
               "name": "",
               "type": "string"
            }
         ],
         "stateMutability": "view",
         "type": "function"
      },
      {
         "inputs": [
            {
               "internalType": "address",
               "name": "owner",
               "type": "address"
            }
         ],
         "name": "numberMinted",
         "outputs": [
            {
               "internalType": "uint256",
               "name": "",
               "type": "uint256"
            }
         ],
         "stateMutability": "view",
         "type": "function"
      },
      {
         "inputs": [],
         "name": "owner",
         "outputs": [
            {
               "internalType": "address",
               "name": "",
               "type": "address"
            }
         ],
         "stateMutability": "view",
         "type": "function"
      },
      {
         "inputs": [
            {
               "internalType": "uint256",
               "name": "tokenId",
               "type": "uint256"
            }
         ],
         "name": "ownerOf",
         "outputs": [
            {
               "internalType": "address",
               "name": "",
               "type": "address"
            }
         ],
         "stateMutability": "view",
         "type": "function"
      },
      {
         "inputs": [
            {
               "internalType": "uint256",
               "name": "tokenId_",
               "type": "uint256"
            },
            {
               "internalType": "uint256",
               "name": "price_",
               "type": "uint256"
            }
         ],
         "name": "placeOffering",
         "outputs": [],
         "stateMutability": "nonpayable",
         "type": "function"
      },
      {
         "inputs": [],
         "name": "renounceOwnership",
         "outputs": [],
         "stateMutability": "nonpayable",
         "type": "function"
      },
      {
         "inputs": [
            {
               "internalType": "address",
               "name": "to",
               "type": "address"
            },
            {
               "internalType": "uint256",
               "name": "quantity",
               "type": "uint256"
            },
            {
               "internalType": "bytes",
               "name": "_data",
               "type": "bytes"
            }
         ],
         "name": "safeMint",
         "outputs": [],
         "stateMutability": "nonpayable",
         "type": "function"
      },
      {
         "inputs": [
            {
               "internalType": "address",
               "name": "to",
               "type": "address"
            },
            {
               "internalType": "uint256",
               "name": "quantity",
               "type": "uint256"
            }
         ],
         "name": "safeMint",
         "outputs": [],
         "stateMutability": "nonpayable",
         "type": "function"
      },
      {
         "inputs": [
            {
               "internalType": "address",
               "name": "from",
               "type": "address"
            },
            {
               "internalType": "address",
               "name": "to",
               "type": "address"
            },
            {
               "internalType": "uint256",
               "name": "tokenId",
               "type": "uint256"
            }
         ],
         "name": "safeTransferFrom",
         "outputs": [],
         "stateMutability": "nonpayable",
         "type": "function"
      },
      {
         "inputs": [
            {
               "internalType": "address",
               "name": "from",
               "type": "address"
            },
            {
               "internalType": "address",
               "name": "to",
               "type": "address"
            },
            {
               "internalType": "uint256",
               "name": "tokenId",
               "type": "uint256"
            },
            {
               "internalType": "bytes",
               "name": "_data",
               "type": "bytes"
            }
         ],
         "name": "safeTransferFrom",
         "outputs": [],
         "stateMutability": "nonpayable",
         "type": "function"
      },
      {
         "inputs": [
            {
               "internalType": "address",
               "name": "operator",
               "type": "address"
            },
            {
               "internalType": "bool",
               "name": "approved",
               "type": "bool"
            }
         ],
         "name": "setApprovalForAll",
         "outputs": [],
         "stateMutability": "nonpayable",
         "type": "function"
      },
      {
         "inputs": [
            {
               "internalType": "address",
               "name": "owner",
               "type": "address"
            },
            {
               "internalType": "uint64",
               "name": "aux",
               "type": "uint64"
            }
         ],
         "name": "setAux",
         "outputs": [],
         "stateMutability": "nonpayable",
         "type": "function"
      },
      {
         "inputs": [
            {
               "internalType": "string",
               "name": "_tokenbaseURI",
               "type": "string"
            }
         ],
         "name": "setBaseURI",
         "outputs": [],
         "stateMutability": "nonpayable",
         "type": "function"
      },
      {
         "inputs": [
            {
               "internalType": "bytes4",
               "name": "interfaceId",
               "type": "bytes4"
            }
         ],
         "name": "supportsInterface",
         "outputs": [
            {
               "internalType": "bool",
               "name": "",
               "type": "bool"
            }
         ],
         "stateMutability": "view",
         "type": "function"
      },
      {
         "inputs": [],
         "name": "symbol",
         "outputs": [
            {
               "internalType": "string",
               "name": "",
               "type": "string"
            }
         ],
         "stateMutability": "view",
         "type": "function"
      },
      {
         "inputs": [
            {
               "internalType": "uint256",
               "name": "tokenId",
               "type": "uint256"
            }
         ],
         "name": "tokenURI",
         "outputs": [
            {
               "internalType": "string",
               "name": "",
               "type": "string"
            }
         ],
         "stateMutability": "view",
         "type": "function"
      },
      {
         "inputs": [],
         "name": "totalSupply",
         "outputs": [
            {
               "internalType": "uint256",
               "name": "",
               "type": "uint256"
            }
         ],
         "stateMutability": "view",
         "type": "function"
      },
      {
         "inputs": [
            {
               "internalType": "address",
               "name": "from",
               "type": "address"
            },
            {
               "internalType": "address",
               "name": "to",
               "type": "address"
            },
            {
               "internalType": "uint256",
               "name": "tokenId",
               "type": "uint256"
            }
         ],
         "name": "transferFrom",
         "outputs": [],
         "stateMutability": "nonpayable",
         "type": "function"
      },
      {
         "inputs": [
            {
               "internalType": "address",
               "name": "newOwner",
               "type": "address"
            }
         ],
         "name": "transferOwnership",
         "outputs": [],
         "stateMutability": "nonpayable",
         "type": "function"
      }
   ],
   "bytecode": "0x60806040523480156200001157600080fd5b506040516200215538038062002155833981016040819052620000349162000220565b8181620000413362000077565b815162000056906004906020850190620000c7565b5080516200006c906005906020840190620000c7565b5050505050620002da565b600080546001600160a01b038381166001600160a01b0319831681178455604051919092169283917f8be0079c531659141344cd1fd0a4f28419497f9722a3daafe3b4186f6b6457e09190a35050565b828054620000d59062000287565b90600052602060002090601f016020900481019282620000f9576000855562000144565b82601f106200011457805160ff191683800117855562000144565b8280016001018555821562000144579182015b828111156200014457825182559160200191906001019062000127565b506200015292915062000156565b5090565b5b8082111562000152576000815560010162000157565b600082601f8301126200017e578081fd5b81516001600160401b03808211156200019b576200019b620002c4565b604051601f8301601f19908116603f01168101908282118183101715620001c657620001c6620002c4565b81604052838152602092508683858801011115620001e2578485fd5b8491505b83821015620002055785820183015181830184015290820190620001e6565b838211156200021657848385830101525b9695505050505050565b6000806040838503121562000233578182fd5b82516001600160401b03808211156200024a578384fd5b62000258868387016200016d565b935060208501519150808211156200026e578283fd5b506200027d858286016200016d565b9150509250929050565b600181811c908216806200029c57607f821691505b60208210811415620002be57634e487b7160e01b600052602260045260246000fd5b50919050565b634e487b7160e01b600052604160045260246000fd5b611e6b80620002ea6000396000f3fe608060405234801561001057600080fd5b50600436106101da5760003560e01c8063715018a611610104578063ad9df9c7116100a2578063c87b56dd11610071578063c87b56dd146103fa578063dc33e6811461040d578063e985e9c514610420578063f2fde38b1461045c57600080fd5b8063ad9df9c714610394578063b88d4fde146103a7578063bf0b175e146103ba578063c24a081b146103e557600080fd5b806395d89b41116100de57806395d89b4114610353578063a14481941461035b578063a1d4646f1461036e578063a22cb4651461038157600080fd5b8063715018a6146103275780638832e6e31461032f5780638da5cb5b1461034257600080fd5b806323ef2de31161017c57806355f804b31161014b57806355f804b3146102e65780636352211e146102f95780636c0360eb1461030c57806370a082311461031457600080fd5b806323ef2de31461029a57806342842e0e146102ad578063453ab141146102c05780634f558e79146102d357600080fd5b8063081812fc116101b8578063081812fc14610231578063095ea7b31461025c57806318160ddd1461027157806323b872dd1461028757600080fd5b806301ffc9a7146101df57806303976f761461020757806306fdde031461021c575b600080fd5b6101f26101ed366004611aa4565b61046f565b60405190151581526020015b60405180910390f35b61020f6104c1565b6040516101fe9190611c61565b6102246105f1565b6040516101fe9190611ca5565b61024461023f366004611b21565b610683565b6040516001600160a01b0390911681526020016101fe565b61026f61026a366004611981565b6106c7565b005b600354600254035b6040519081526020016101fe565b61026f6102953660046118b8565b610755565b61026f6102a8366004611b39565b610760565b61026f6102bb3660046118b8565b6108af565b61026f6102ce366004611a63565b6108ca565b6101f26102e1366004611b21565b6108d8565b61026f6102f4366004611adc565b6108e3565b610244610307366004611b21565b610920565b610224610932565b61027961032236600461186c565b610941565b61026f61098f565b61026f61033d3660046119aa565b6109c5565b6000546001600160a01b0316610244565b6102246109d0565b61026f610369366004611981565b6109df565b61026f61037c366004611b21565b6109e9565b61026f61038f366004611958565b610ad8565b61026f6103a23660046119fe565b610b6e565b61026f6103b53660046118f3565b610b80565b6103cd6103c836600461186c565b610bb4565b6040516001600160401b0390911681526020016101fe565b6103ed610bbf565b6040516101fe9190611bf2565b610224610408366004611b21565b610d0d565b61027961041b36600461186c565b610d92565b6101f261042e366004611886565b6001600160a01b03918216600090815260096020908152604080832093909416825291909152205460ff1690565b61026f61046a36600461186c565b610d9d565b60006001600160e01b031982166380ac58cd60e01b14806104a057506001600160e01b03198216635b5e139f60e01b145b806104bb57506301ffc9a760e01b6001600160e01b03198316145b92915050565b60603360006104cf82610941565b9050600081116105165760405162461bcd60e51b815260206004820152600d60248201526c27379037bbb732b21027232a1760991b60448201526064015b60405180910390fd5b600080826001600160401b0381111561053f57634e487b7160e01b600052604160045260246000fd5b604051908082528060200260200182016040528015610568578160200160208202803683370190505b50905060008092505b6002548310156105e857846001600160a01b031661058e84610920565b6001600160a01b031614156105d6578282826105a981611dae565b9350815181106105c957634e487b7160e01b600052603260045260246000fd5b6020026020010181815250505b826105e081611dae565b935050610571565b50949350505050565b60606004805461060090611d73565b80601f016020809104026020016040519081016040528092919081815260200182805461062c90611d73565b80156106795780601f1061064e57610100808354040283529160200191610679565b820191906000526020600020905b81548152906001019060200180831161065c57829003601f168201915b5050505050905090565b600061068e82610e38565b6106ab576040516333d1c03960e21b815260040160405180910390fd5b506000908152600860205260409020546001600160a01b031690565b60006106d282610920565b9050806001600160a01b0316836001600160a01b031614156107075760405163250fdee360e21b815260040160405180910390fd5b336001600160a01b038216148015906107275750610725813361042e565b155b15610745576040516367d9dca160e11b815260040160405180910390fd5b610750838383610e64565b505050565b610750838383610ec0565b338261076b81610920565b6001600160a01b0316826001600160a01b0316146107cb5760405162461bcd60e51b815260206004820181905260248201527f417a756b693a2063616c6c6572206973206e6f7420746f6b656e206f776e6572604482015260640161050d565b6000848152600b602052604090206003015460ff1615156001141561080357604051632b99245b60e11b815260040160405180910390fd5b600c805490600061081383611dae565b9091555050336000908152600a6020526040812080549161083383611dae565b90915550506040805160808101825233815260208082019586528183018781526001606084018181526000998a52600b90935293909720915182546001600160a01b0319166001600160a01b03909116178255945191810191909155935160028501555050516003909101805460ff1916911515919091179055565b61075083838360405180602001604052806000815250610b80565b6108d482826110d4565b5050565b60006104bb82610e38565b6000546001600160a01b0316331461090d5760405162461bcd60e51b815260040161050d90611cb8565b80516108d4906001906020840190611713565b600061092b8261113a565b5192915050565b606061093c611255565b905090565b60006001600160a01b03821661096a576040516323d3ad8160e21b815260040160405180910390fd5b506001600160a01b03166000908152600760205260409020546001600160401b031690565b6000546001600160a01b031633146109b95760405162461bcd60e51b815260040161050d90611cb8565b6109c36000611264565b565b6107508383836112b4565b60606005805461060090611d73565b6108d482826112c1565b33816109f481610920565b6001600160a01b0316826001600160a01b031614610a545760405162461bcd60e51b815260206004820181905260248201527f417a756b693a2063616c6c6572206973206e6f7420746f6b656e206f776e6572604482015260640161050d565b6000838152600b602052604090206003015460ff16610a8657604051633edeeb1560e11b815260040160405180910390fd5b600c8054906000610a9683611d5c565b9091555050336000908152600a60205260408120805491610ab683611d5c565b909155505050600091825250600b60205260409020600301805460ff19169055565b6001600160a01b038216331415610b025760405163b06307db60e01b815260040160405180910390fd5b3360008181526009602090815260408083206001600160a01b03871680855290835292819020805460ff191686151590811790915590519081529192917f17307eab39ab6107e8899845ad3d59bd9653f200f220920489ca2b5937696c31910160405180910390a35050565b610b7a848484846112db565b50505050565b610b8b848484610ec0565b610b9784848484611441565b610b7a576040516368d2bf6b60e11b815260040160405180910390fd5b60006104bb82611550565b60606000600c546001600160401b03811115610beb57634e487b7160e01b600052604160045260246000fd5b604051908082528060200260200182016040528015610c3d57816020015b604080516080810182526000808252602080830182905292820181905260608201528252600019909201910181610c095790505b5090506000805b600254821015610d05576000828152600b602052604090206003015460ff16151560011415610cf3576000828152600b6020908152604091829020825160808101845281546001600160a01b0316815260018201549281019290925260028101549282019290925260039091015460ff16151560608201528382610cc781611dae565b935081518110610ce757634e487b7160e01b600052603260045260246000fd5b60200260200101819052505b81610cfd81611dae565b925050610c44565b509092915050565b6060610d1882610e38565b610d3557604051630a14c4b560e41b815260040160405180910390fd5b6000610d3f611255565b9050805160001415610d605760405180602001604052806000815250610d8b565b80610d6a846115a5565b604051602001610d7b929190611b86565b6040516020818303038152906040525b9392505050565b60006104bb826116be565b6000546001600160a01b03163314610dc75760405162461bcd60e51b815260040161050d90611cb8565b6001600160a01b038116610e2c5760405162461bcd60e51b815260206004820152602660248201527f4f776e61626c653a206e6577206f776e657220697320746865207a65726f206160448201526564647265737360d01b606482015260840161050d565b610e3581611264565b50565b6000600254821080156104bb575050600090815260066020526040902054600160e01b900460ff161590565b60008281526008602052604080822080546001600160a01b0319166001600160a01b0387811691821790925591518593918516917f8c5be1e5ebec7d5bd14f71427d1e84f3dd0314c0f7b2291e5b200ac8c7c3b92591a4505050565b6000610ecb8261113a565b80519091506000906001600160a01b0316336001600160a01b03161480610ef957508151610ef9903361042e565b80610f14575033610f0984610683565b6001600160a01b0316145b905080610f3457604051632ce44b5f60e11b815260040160405180910390fd5b846001600160a01b031682600001516001600160a01b031614610f695760405162a1148160e81b815260040160405180910390fd5b6001600160a01b038416610f9057604051633a954ecd60e21b815260040160405180910390fd5b610fa06000848460000151610e64565b6001600160a01b038581166000908152600760209081526040808320805467ffffffffffffffff198082166001600160401b0392831660001901831617909255898616808652838620805493841693831660019081018416949094179055898652600690945282852080546001600160e01b031916909417600160a01b42909216919091021790925590860180835291205490911661108a5760025481101561108a57825160008281526006602090815260409091208054918601516001600160401b0316600160a01b026001600160e01b03199092166001600160a01b03909316929092171790555b5082846001600160a01b0316866001600160a01b03167fddf252ad1be2c89b69c2b068fc378daa952ba7f163c4a11628f55a4df523b3ef60405160405180910390a45b5050505050565b6001600160a01b0382166110fb5760405163561b93dd60e11b815260040160405180910390fd5b6001600160a01b03909116600090815260076020526040902080546001600160401b03909216600160c01b026001600160c01b03909216919091179055565b6040805160608101825260008082526020820181905291810191909152600254829081101561123c57600081815260066020908152604091829020825160608101845290546001600160a01b0381168252600160a01b81046001600160401b031692820192909252600160e01b90910460ff1615159181018290529061123a5780516001600160a01b0316156111d1579392505050565b5060001901600081815260066020908152604091829020825160608101845290546001600160a01b038116808352600160a01b82046001600160401b031693830193909352600160e01b900460ff1615159281019290925215611235579392505050565b6111d1565b505b604051636f96cda160e11b815260040160405180910390fd5b60606001805461060090611d73565b600080546001600160a01b038381166001600160a01b0319831681178455604051919092169283917f8be0079c531659141344cd1fd0a4f28419497f9722a3daafe3b4186f6b6457e09190a35050565b61075083838360016112db565b6108d48282604051806020016040528060008152506112b4565b6002546001600160a01b03851661130457604051622e076360e81b815260040160405180910390fd5b836113225760405163b562e8dd60e01b815260040160405180910390fd5b6001600160a01b038516600081815260076020908152604080832080546fffffffffffffffffffffffffffffffff1981166001600160401b038083168c018116918217600160401b67ffffffffffffffff1990941690921783900481168c018116909202179091558584526006909252822080546001600160e01b031916909317600160a01b42909216919091021790915581905b858110156114385760405182906001600160a01b038916906000907fddf252ad1be2c89b69c2b068fc378daa952ba7f163c4a11628f55a4df523b3ef908290a483801561140e575061140c6000888488611441565b155b1561142c576040516368d2bf6b60e11b815260040160405180910390fd5b600191820191016113b7565b506002556110cd565b60006001600160a01b0384163b1561154457604051630a85bd0160e11b81526001600160a01b0385169063150b7a0290611485903390899088908890600401611bb5565b602060405180830381600087803b15801561149f57600080fd5b505af19250505080156114cf575060408051601f3d908101601f191682019092526114cc91810190611ac0565b60015b61152a573d8080156114fd576040519150601f19603f3d011682016040523d82523d6000602084013e611502565b606091505b508051611522576040516368d2bf6b60e11b815260040160405180910390fd5b805181602001fd5b6001600160e01b031916630a85bd0160e11b149050611548565b5060015b949350505050565b60006001600160a01b0382166115795760405163561b93dd60e11b815260040160405180910390fd5b506001600160a01b0316600090815260076020526040902054600160c01b90046001600160401b031690565b6060816115c95750506040805180820190915260018152600360fc1b602082015290565b8160005b81156115f357806115dd81611dae565b91506115ec9050600a83611d05565b91506115cd565b6000816001600160401b0381111561161b57634e487b7160e01b600052604160045260246000fd5b6040519080825280601f01601f191660200182016040528015611645576020820181803683370190505b5090505b84156115485761165a600183611d19565b9150611667600a86611dc9565b611672906030611ced565b60f81b81838151811061169557634e487b7160e01b600052603260045260246000fd5b60200101906001600160f81b031916908160001a9053506116b7600a86611d05565b9450611649565b60006001600160a01b0382166116e7576040516335ebb31960e01b815260040160405180910390fd5b506001600160a01b0316600090815260076020526040902054600160401b90046001600160401b031690565b82805461171f90611d73565b90600052602060002090601f0160209004810192826117415760008555611787565b82601f1061175a57805160ff1916838001178555611787565b82800160010185558215611787579182015b8281111561178757825182559160200191906001019061176c565b50611793929150611797565b5090565b5b808211156117935760008155600101611798565b60006001600160401b03808411156117c6576117c6611e09565b604051601f8501601f19908116603f011681019082821181831017156117ee576117ee611e09565b8160405280935085815286868601111561180757600080fd5b858560208301376000602087830101525050509392505050565b80356001600160a01b038116811461183857600080fd5b919050565b8035801515811461183857600080fd5b600082601f83011261185d578081fd5b610d8b838335602085016117ac565b60006020828403121561187d578081fd5b610d8b82611821565b60008060408385031215611898578081fd5b6118a183611821565b91506118af60208401611821565b90509250929050565b6000806000606084860312156118cc578081fd5b6118d584611821565b92506118e360208501611821565b9150604084013590509250925092565b60008060008060808587031215611908578081fd5b61191185611821565b935061191f60208601611821565b92506040850135915060608501356001600160401b03811115611940578182fd5b61194c8782880161184d565b91505092959194509250565b6000806040838503121561196a578182fd5b61197383611821565b91506118af6020840161183d565b60008060408385031215611993578182fd5b61199c83611821565b946020939093013593505050565b6000806000606084860312156119be578283fd5b6119c784611821565b92506020840135915060408401356001600160401b038111156119e8578182fd5b6119f48682870161184d565b9150509250925092565b60008060008060808587031215611a13578384fd5b611a1c85611821565b93506020850135925060408501356001600160401b03811115611a3d578283fd5b611a498782880161184d565b925050611a586060860161183d565b905092959194509250565b60008060408385031215611a75578182fd5b611a7e83611821565b915060208301356001600160401b0381168114611a99578182fd5b809150509250929050565b600060208284031215611ab5578081fd5b8135610d8b81611e1f565b600060208284031215611ad1578081fd5b8151610d8b81611e1f565b600060208284031215611aed578081fd5b81356001600160401b03811115611b02578182fd5b8201601f81018413611b12578182fd5b611548848235602084016117ac565b600060208284031215611b32578081fd5b5035919050565b60008060408385031215611b4b578182fd5b50508035926020909101359150565b60008151808452611b72816020860160208601611d30565b601f01601f19169290920160200192915050565b60008351611b98818460208801611d30565b835190830190611bac818360208801611d30565b01949350505050565b6001600160a01b0385811682528416602082015260408101839052608060608201819052600090611be890830184611b5a565b9695505050505050565b602080825282518282018190526000919060409081850190868401855b82811015611c5457815180516001600160a01b031685528681015187860152858101518686015260609081015115159085015260809093019290850190600101611c0f565b5091979650505050505050565b6020808252825182820181905260009190848201906040850190845b81811015611c9957835183529284019291840191600101611c7d565b50909695505050505050565b602081526000610d8b6020830184611b5a565b6020808252818101527f4f776e61626c653a2063616c6c6572206973206e6f7420746865206f776e6572604082015260600190565b60008219821115611d0057611d00611ddd565b500190565b600082611d1457611d14611df3565b500490565b600082821015611d2b57611d2b611ddd565b500390565b60005b83811015611d4b578181015183820152602001611d33565b83811115610b7a5750506000910152565b600081611d6b57611d6b611ddd565b506000190190565b600181811c90821680611d8757607f821691505b60208210811415611da857634e487b7160e01b600052602260045260246000fd5b50919050565b6000600019821415611dc257611dc2611ddd565b5060010190565b600082611dd857611dd8611df3565b500690565b634e487b7160e01b600052601160045260246000fd5b634e487b7160e01b600052601260045260246000fd5b634e487b7160e01b600052604160045260246000fd5b6001600160e01b031981168114610e3557600080fdfea2646970667358221220808033d8b219c4400963b7a1271672e71d6e740110e1e2950c0e20944a89f3ea64736f6c63430008040033",
   "linkReferences": {},
   "deployedLinkReferences": {}
}