{
  "_format": "hh-sol-artifact-1",
  "contractName": "MintingMarketPlace",
  "sourceName": "contracts/marketPlace.sol",
  "abi": [
    {
      "inputs": [
        {
          "internalType": "string",
          "name": "name_",
          "type": "string"
        },
        {
          "internalType": "string",
          "name": "symbol_",
          "type": "string"
        }
      ],
      "stateMutability": "nonpayable",
      "type": "constructor"
    },
    {
      "inputs": [],
      "name": "AlreadyOffered",
      "type": "error"
    },
    {
      "inputs": [],
      "name": "ApprovalCallerNotOwnerNorApproved",
      "type": "error"
    },
    {
      "inputs": [],
      "name": "ApprovalQueryForNonexistentToken",
      "type": "error"
    },
    {
      "inputs": [],
      "name": "ApprovalToCurrentOwner",
      "type": "error"
    },
    {
      "inputs": [],
      "name": "ApproveToCaller",
      "type": "error"
    },
    {
      "inputs": [],
      "name": "AuxQueryForZeroAddress",
      "type": "error"
    },
    {
      "inputs": [],
      "name": "BalanceQueryForZeroAddress",
      "type": "error"
    },
    {
      "inputs": [],
      "name": "MintToZeroAddress",
      "type": "error"
    },
    {
      "inputs": [],
      "name": "MintZeroQuantity",
      "type": "error"
    },
    {
      "inputs": [],
      "name": "MintedQueryForZeroAddress",
      "type": "error"
    },
    {
      "inputs": [],
      "name": "NotOfferedNFT",
      "type": "error"
    },
    {
      "inputs": [],
      "name": "OwnerQueryForNonexistentToken",
      "type": "error"
    },
    {
      "inputs": [],
      "name": "TransferCallerNotOwnerNorApproved",
      "type": "error"
    },
    {
      "inputs": [],
      "name": "TransferFromIncorrectOwner",
      "type": "error"
    },
    {
      "inputs": [],
      "name": "TransferToNonERC721ReceiverImplementer",
      "type": "error"
    },
    {
      "inputs": [],
      "name": "TransferToZeroAddress",
      "type": "error"
    },
    {
      "inputs": [],
      "name": "URIQueryForNonexistentToken",
      "type": "error"
    },
    {
      "anonymous": false,
      "inputs": [
        {
          "indexed": true,
          "internalType": "address",
          "name": "owner",
          "type": "address"
        },
        {
          "indexed": true,
          "internalType": "address",
          "name": "approved",
          "type": "address"
        },
        {
          "indexed": true,
          "internalType": "uint256",
          "name": "tokenId",
          "type": "uint256"
        }
      ],
      "name": "Approval",
      "type": "event"
    },
    {
      "anonymous": false,
      "inputs": [
        {
          "indexed": true,
          "internalType": "address",
          "name": "owner",
          "type": "address"
        },
        {
          "indexed": true,
          "internalType": "address",
          "name": "operator",
          "type": "address"
        },
        {
          "indexed": false,
          "internalType": "bool",
          "name": "approved",
          "type": "bool"
        }
      ],
      "name": "ApprovalForAll",
      "type": "event"
    },
    {
      "anonymous": false,
      "inputs": [
        {
          "indexed": true,
          "internalType": "address",
          "name": "previousOwner",
          "type": "address"
        },
        {
          "indexed": true,
          "internalType": "address",
          "name": "newOwner",
          "type": "address"
        }
      ],
      "name": "OwnershipTransferred",
      "type": "event"
    },
    {
      "anonymous": false,
      "inputs": [
        {
          "indexed": true,
          "internalType": "address",
          "name": "from",
          "type": "address"
        },
        {
          "indexed": true,
          "internalType": "address",
          "name": "to",
          "type": "address"
        },
        {
          "indexed": true,
          "internalType": "uint256",
          "name": "tokenId",
          "type": "uint256"
        }
      ],
      "name": "Transfer",
      "type": "event"
    },
    {
      "inputs": [
        {
          "internalType": "address",
          "name": "to",
          "type": "address"
        },
        {
          "internalType": "uint256",
          "name": "tokenId",
          "type": "uint256"
        }
      ],
      "name": "approve",
      "outputs": [],
      "stateMutability": "nonpayable",
      "type": "function"
    },
    {
      "inputs": [
        {
          "internalType": "address",
          "name": "owner",
          "type": "address"
        }
      ],
      "name": "balanceOf",
      "outputs": [
        {
          "internalType": "uint256",
          "name": "",
          "type": "uint256"
        }
      ],
      "stateMutability": "view",
      "type": "function"
    },
    {
      "inputs": [],
      "name": "baseURI",
      "outputs": [
        {
          "internalType": "string",
          "name": "",
          "type": "string"
        }
      ],
      "stateMutability": "view",
      "type": "function"
    },
    {
      "inputs": [
        {
          "internalType": "uint256",
          "name": "tokenId_",
          "type": "uint256"
        }
      ],
      "name": "closeOffering",
      "outputs": [],
      "stateMutability": "nonpayable",
      "type": "function"
    },
    {
      "inputs": [
        {
          "internalType": "uint256",
          "name": "tokenId",
          "type": "uint256"
        }
      ],
      "name": "exists",
      "outputs": [
        {
          "internalType": "bool",
          "name": "",
          "type": "bool"
        }
      ],
      "stateMutability": "view",
      "type": "function"
    },
    {
      "inputs": [
        {
          "internalType": "uint256",
          "name": "tokenId",
          "type": "uint256"
        }
      ],
      "name": "getApproved",
      "outputs": [
        {
          "internalType": "address",
          "name": "",
          "type": "address"
        }
      ],
      "stateMutability": "view",
      "type": "function"
    },
    {
      "inputs": [
        {
          "internalType": "address",
          "name": "owner",
          "type": "address"
        }
      ],
      "name": "getAux",
      "outputs": [
        {
          "internalType": "uint64",
          "name": "",
          "type": "uint64"
        }
      ],
      "stateMutability": "view",
      "type": "function"
    },
    {
      "inputs": [],
      "name": "getNFTByOwner",
      "outputs": [
        {
          "internalType": "uint256[]",
          "name": "",
          "type": "uint256[]"
        }
      ],
      "stateMutability": "view",
      "type": "function"
    },
    {
      "inputs": [],
      "name": "getOfferedNFT",
      "outputs": [
        {
          "components": [
            {
              "internalType": "address",
              "name": "owner",
              "type": "address"
            },
            {
              "internalType": "uint256",
              "name": "price",
              "type": "uint256"
            },
            {
              "internalType": "uint256",
              "name": "tokenId",
              "type": "uint256"
            },
            {
              "internalType": "string",
              "name": "sign",
              "type": "string"
            },
            {
              "internalType": "bool",
              "name": "forSale",
              "type": "bool"
            }
          ],
          "internalType": "struct MintingMarketPlace.Offering[]",
          "name": "",
          "type": "tuple[]"
        }
      ],
      "stateMutability": "view",
      "type": "function"
    },
    {
      "inputs": [
        {
          "internalType": "uint256",
          "name": "tokenId_",
          "type": "uint256"
        }
      ],
      "name": "getOfferedNFTByTokenID",
      "outputs": [
        {
          "components": [
            {
              "internalType": "address",
              "name": "owner",
              "type": "address"
            },
            {
              "internalType": "uint256",
              "name": "price",
              "type": "uint256"
            },
            {
              "internalType": "uint256",
              "name": "tokenId",
              "type": "uint256"
            },
            {
              "internalType": "string",
              "name": "sign",
              "type": "string"
            },
            {
              "internalType": "bool",
              "name": "forSale",
              "type": "bool"
            }
          ],
          "internalType": "struct MintingMarketPlace.Offering",
          "name": "",
          "type": "tuple"
        }
      ],
      "stateMutability": "view",
      "type": "function"
    },
    {
      "inputs": [
        {
          "internalType": "address",
          "name": "owner",
          "type": "address"
        },
        {
          "internalType": "address",
          "name": "operator",
          "type": "address"
        }
      ],
      "name": "isApprovedForAll",
      "outputs": [
        {
          "internalType": "bool",
          "name": "",
          "type": "bool"
        }
      ],
      "stateMutability": "view",
      "type": "function"
    },
    {
      "inputs": [
        {
          "internalType": "address",
          "name": "to",
          "type": "address"
        },
        {
          "internalType": "uint256",
          "name": "quantity",
          "type": "uint256"
        },
        {
          "internalType": "bytes",
          "name": "_data",
          "type": "bytes"
        },
        {
          "internalType": "bool",
          "name": "safe",
          "type": "bool"
        }
      ],
      "name": "mint",
      "outputs": [],
      "stateMutability": "nonpayable",
      "type": "function"
    },
    {
      "inputs": [],
      "name": "name",
      "outputs": [
        {
          "internalType": "string",
          "name": "",
          "type": "string"
        }
      ],
      "stateMutability": "view",
      "type": "function"
    },
    {
      "inputs": [
        {
          "internalType": "address",
          "name": "owner",
          "type": "address"
        }
      ],
      "name": "numberMinted",
      "outputs": [
        {
          "internalType": "uint256",
          "name": "",
          "type": "uint256"
        }
      ],
      "stateMutability": "view",
      "type": "function"
    },
    {
      "inputs": [],
      "name": "owner",
      "outputs": [
        {
          "internalType": "address",
          "name": "",
          "type": "address"
        }
      ],
      "stateMutability": "view",
      "type": "function"
    },
    {
      "inputs": [
        {
          "internalType": "uint256",
          "name": "tokenId",
          "type": "uint256"
        }
      ],
      "name": "ownerOf",
      "outputs": [
        {
          "internalType": "address",
          "name": "",
          "type": "address"
        }
      ],
      "stateMutability": "view",
      "type": "function"
    },
    {
      "inputs": [
        {
          "internalType": "uint256",
          "name": "tokenId_",
          "type": "uint256"
        },
        {
          "internalType": "uint256",
          "name": "price_",
          "type": "uint256"
        },
        {
          "internalType": "string",
          "name": "sign_",
          "type": "string"
        }
      ],
      "name": "placeOffering",
      "outputs": [],
      "stateMutability": "nonpayable",
      "type": "function"
    },
    {
      "inputs": [],
      "name": "renounceOwnership",
      "outputs": [],
      "stateMutability": "nonpayable",
      "type": "function"
    },
    {
      "inputs": [
        {
          "internalType": "address",
          "name": "to",
          "type": "address"
        },
        {
          "internalType": "uint256",
          "name": "quantity",
          "type": "uint256"
        },
        {
          "internalType": "bytes",
          "name": "_data",
          "type": "bytes"
        }
      ],
      "name": "safeMint",
      "outputs": [],
      "stateMutability": "nonpayable",
      "type": "function"
    },
    {
      "inputs": [
        {
          "internalType": "address",
          "name": "to",
          "type": "address"
        },
        {
          "internalType": "uint256",
          "name": "quantity",
          "type": "uint256"
        }
      ],
      "name": "safeMint",
      "outputs": [],
      "stateMutability": "nonpayable",
      "type": "function"
    },
    {
      "inputs": [
        {
          "internalType": "address",
          "name": "from",
          "type": "address"
        },
        {
          "internalType": "address",
          "name": "to",
          "type": "address"
        },
        {
          "internalType": "uint256",
          "name": "tokenId",
          "type": "uint256"
        }
      ],
      "name": "safeTransferFrom",
      "outputs": [],
      "stateMutability": "nonpayable",
      "type": "function"
    },
    {
      "inputs": [
        {
          "internalType": "address",
          "name": "from",
          "type": "address"
        },
        {
          "internalType": "address",
          "name": "to",
          "type": "address"
        },
        {
          "internalType": "uint256",
          "name": "tokenId",
          "type": "uint256"
        },
        {
          "internalType": "bytes",
          "name": "_data",
          "type": "bytes"
        }
      ],
      "name": "safeTransferFrom",
      "outputs": [],
      "stateMutability": "nonpayable",
      "type": "function"
    },
    {
      "inputs": [
        {
          "internalType": "address",
          "name": "operator",
          "type": "address"
        },
        {
          "internalType": "bool",
          "name": "approved",
          "type": "bool"
        }
      ],
      "name": "setApprovalForAll",
      "outputs": [],
      "stateMutability": "nonpayable",
      "type": "function"
    },
    {
      "inputs": [
        {
          "internalType": "address",
          "name": "owner",
          "type": "address"
        },
        {
          "internalType": "uint64",
          "name": "aux",
          "type": "uint64"
        }
      ],
      "name": "setAux",
      "outputs": [],
      "stateMutability": "nonpayable",
      "type": "function"
    },
    {
      "inputs": [
        {
          "internalType": "string",
          "name": "_tokenbaseURI",
          "type": "string"
        }
      ],
      "name": "setBaseURI",
      "outputs": [],
      "stateMutability": "nonpayable",
      "type": "function"
    },
    {
      "inputs": [
        {
          "internalType": "bytes4",
          "name": "interfaceId",
          "type": "bytes4"
        }
      ],
      "name": "supportsInterface",
      "outputs": [
        {
          "internalType": "bool",
          "name": "",
          "type": "bool"
        }
      ],
      "stateMutability": "view",
      "type": "function"
    },
    {
      "inputs": [],
      "name": "symbol",
      "outputs": [
        {
          "internalType": "string",
          "name": "",
          "type": "string"
        }
      ],
      "stateMutability": "view",
      "type": "function"
    },
    {
      "inputs": [
        {
          "internalType": "uint256",
          "name": "tokenId",
          "type": "uint256"
        }
      ],
      "name": "tokenURI",
      "outputs": [
        {
          "internalType": "string",
          "name": "",
          "type": "string"
        }
      ],
      "stateMutability": "view",
      "type": "function"
    },
    {
      "inputs": [],
      "name": "totalSupply",
      "outputs": [
        {
          "internalType": "uint256",
          "name": "",
          "type": "uint256"
        }
      ],
      "stateMutability": "view",
      "type": "function"
    },
    {
      "inputs": [
        {
          "internalType": "address",
          "name": "from",
          "type": "address"
        },
        {
          "internalType": "address",
          "name": "to",
          "type": "address"
        },
        {
          "internalType": "uint256",
          "name": "tokenId",
          "type": "uint256"
        }
      ],
      "name": "transferFrom",
      "outputs": [],
      "stateMutability": "nonpayable",
      "type": "function"
    },
    {
      "inputs": [
        {
          "internalType": "address",
          "name": "newOwner",
          "type": "address"
        }
      ],
      "name": "transferOwnership",
      "outputs": [],
      "stateMutability": "nonpayable",
      "type": "function"
    }
  ],
  "bytecode": "0x60806040523480156200001157600080fd5b506040516200255538038062002555833981016040819052620000349162000226565b818162000041336200007d565b815162000056906004906020850190620000cd565b5080516200006c906005906020840190620000cd565b50506001600a5550620002e0915050565b600080546001600160a01b038381166001600160a01b0319831681178455604051919092169283917f8be0079c531659141344cd1fd0a4f28419497f9722a3daafe3b4186f6b6457e09190a35050565b828054620000db906200028d565b90600052602060002090601f016020900481019282620000ff57600085556200014a565b82601f106200011a57805160ff19168380011785556200014a565b828001600101855582156200014a579182015b828111156200014a5782518255916020019190600101906200012d565b50620001589291506200015c565b5090565b5b808211156200015857600081556001016200015d565b600082601f83011262000184578081fd5b81516001600160401b0380821115620001a157620001a1620002ca565b604051601f8301601f19908116603f01168101908282118183101715620001cc57620001cc620002ca565b81604052838152602092508683858801011115620001e8578485fd5b8491505b838210156200020b5785820183015181830184015290820190620001ec565b838211156200021c57848385830101525b9695505050505050565b6000806040838503121562000239578182fd5b82516001600160401b038082111562000250578384fd5b6200025e8683870162000173565b9350602085015191508082111562000274578283fd5b50620002838582860162000173565b9150509250929050565b600181811c90821680620002a257607f821691505b60208210811415620002c457634e487b7160e01b600052602260045260246000fd5b50919050565b634e487b7160e01b600052604160045260246000fd5b61226580620002f06000396000f3fe608060405234801561001057600080fd5b50600436106101e55760003560e01c80638832e6e31161010f578063b88d4fde116100a2578063c87b56dd11610071578063c87b56dd14610425578063dc33e68114610438578063e985e9c51461044b578063f2fde38b1461048757600080fd5b8063b88d4fde146103b2578063bf0b175e146103c5578063c24a081b146103f0578063c65f05dd1461040557600080fd5b8063a1d4646f116100de578063a1d4646f14610366578063a22cb46514610379578063ad9df9c71461038c578063b36ef9181461039f57600080fd5b80638832e6e3146103275780638da5cb5b1461033a57806395d89b411461034b578063a14481941461035357600080fd5b806342842e0e116101875780636352211e116101565780636352211e146102f15780636c0360eb1461030457806370a082311461030c578063715018a61461031f57600080fd5b806342842e0e146102a5578063453ab141146102b85780634f558e79146102cb57806355f804b3146102de57600080fd5b8063081812fc116101c3578063081812fc1461023c578063095ea7b31461026757806318160ddd1461027c57806323b872dd1461029257600080fd5b806301ffc9a7146101ea57806303976f761461021257806306fdde0314610227575b600080fd5b6101fd6101f8366004611e45565b61049a565b60405190151581526020015b60405180910390f35b61021a6104ec565b6040516102099190612048565b61022f6105e1565b604051610209919061208c565b61024f61024a366004611eaf565b610673565b6040516001600160a01b039091168152602001610209565b61027a610275366004611d22565b6106b7565b005b600354600254035b604051908152602001610209565b61027a6102a0366004611c59565b610745565b61027a6102b3366004611c59565b610750565b61027a6102c6366004611e04565b61076b565b6101fd6102d9366004611eaf565b610779565b61027a6102ec366004611e7d565b610784565b61024f6102ff366004611eaf565b6107ca565b61022f6107dc565b61028461031a366004611c0d565b6107eb565b61027a610839565b61027a610335366004611d4b565b61086f565b6000546001600160a01b031661024f565b61022f61087a565b61027a610361366004611d22565b610889565b61027a610374366004611eaf565b610893565b61027a610387366004611cf9565b6109df565b61027a61039a366004611d9f565b610a75565b61027a6103ad366004611ec7565b610a87565b61027a6103c0366004611c94565b610c59565b6103d86103d3366004611c0d565b610c8d565b6040516001600160401b039091168152602001610209565b6103f8610c98565b6040516102099190611fe7565b610418610413366004611eaf565b610e68565b60405161020991906120d4565b61022f610433366004611eaf565b610fa4565b610284610446366004611c0d565b611029565b6101fd610459366004611c27565b6001600160a01b03918216600090815260096020908152604080832093909416825291909152205460ff1690565b61027a610495366004611c0d565b611034565b60006001600160e01b031982166380ac58cd60e01b14806104cb57506001600160e01b03198216635b5e139f60e01b145b806104e657506301ffc9a760e01b6001600160e01b03198316145b92915050565b60603360006104fa826107eb565b90506000816001600160401b0381111561052457634e487b7160e01b600052604160045260246000fd5b60405190808252806020026020018201604052801561054d578160200160208202803683370190505b5090508161055c579392505050565b6000805b6002548210156105d757846001600160a01b031661057d836107ca565b6001600160a01b031614156105c557818382610598816121a8565b9350815181106105b857634e487b7160e01b600052603260045260246000fd5b6020026020010181815250505b816105cf816121a8565b925050610560565b5090949350505050565b6060600480546105f09061216d565b80601f016020809104026020016040519081016040528092919081815260200182805461061c9061216d565b80156106695780601f1061063e57610100808354040283529160200191610669565b820191906000526020600020905b81548152906001019060200180831161064c57829003601f168201915b5050505050905090565b600061067e826110cf565b61069b576040516333d1c03960e21b815260040160405180910390fd5b506000908152600860205260409020546001600160a01b031690565b60006106c2826107ca565b9050806001600160a01b0316836001600160a01b031614156106f75760405163250fdee360e21b815260040160405180910390fd5b336001600160a01b0382161480159061071757506107158133610459565b155b15610735576040516367d9dca160e11b815260040160405180910390fd5b6107408383836110fb565b505050565b610740838383611157565b61074083838360405180602001604052806000815250610c59565b6107758282611378565b5050565b60006104e6826110cf565b6000546001600160a01b031633146107b75760405162461bcd60e51b81526004016107ae9061209f565b60405180910390fd5b8051610775906001906020840190611a88565b60006107d5826113de565b5192915050565b60606107e66114f9565b905090565b60006001600160a01b038216610814576040516323d3ad8160e21b815260040160405180910390fd5b506001600160a01b03166000908152600760205260409020546001600160401b031690565b6000546001600160a01b031633146108635760405162461bcd60e51b81526004016107ae9061209f565b61086d6000611508565b565b610740838383611558565b6060600580546105f09061216d565b6107758282611565565b6002600a5414156108e65760405162461bcd60e51b815260206004820152601f60248201527f5265656e7472616e637947756172643a207265656e7472616e742063616c6c0060448201526064016107ae565b6002600a5533816108f6816107ca565b6001600160a01b0316826001600160a01b0316146109565760405162461bcd60e51b815260206004820181905260248201527f417a756b693a2063616c6c6572206973206e6f7420746f6b656e206f776e657260448201526064016107ae565b6000838152600c602052604090206004015460ff1661098857604051633edeeb1560e11b815260040160405180910390fd5b600d805490600061099883612156565b9091555050336000908152600b602052604081208054916109b883612156565b909155505050600091825250600c60205260409020600401805460ff191690556001600a55565b6001600160a01b038216331415610a095760405163b06307db60e01b815260040160405180910390fd5b3360008181526009602090815260408083206001600160a01b03871680855290835292819020805460ff191686151590811790915590519081529192917f17307eab39ab6107e8899845ad3d59bd9653f200f220920489ca2b5937696c31910160405180910390a35050565b610a818484848461157f565b50505050565b6002600a541415610ada5760405162461bcd60e51b815260206004820152601f60248201527f5265656e7472616e637947756172643a207265656e7472616e742063616c6c0060448201526064016107ae565b6002600a553383610aea816107ca565b6001600160a01b0316826001600160a01b031614610b4a5760405162461bcd60e51b815260206004820181905260248201527f417a756b693a2063616c6c6572206973206e6f7420746f6b656e206f776e657260448201526064016107ae565b6000858152600c602052604090206004015460ff16151560011415610b8257604051632b99245b60e11b815260040160405180910390fd5b600d8054906000610b92836121a8565b9091555050336000908152600b60205260408120805491610bb2836121a8565b90915550506040805160a08101825233815260208082018781528284018981526060840188815260016080860181905260008c8152600c865296909620855181546001600160a01b0319166001600160a01b0390911617815592519583019590955551600282015592518051929392610c319260038501920190611a88565b50608091909101516004909101805460ff191691151591909117905550506001600a55505050565b610c64848484611157565b610c70848484846116f2565b610a81576040516368d2bf6b60e11b815260040160405180910390fd5b60006104e682611801565b60606000600d546001600160401b03811115610cc457634e487b7160e01b600052604160045260246000fd5b604051908082528060200260200182016040528015610cfd57816020015b610cea611b0c565b815260200190600190039081610ce25790505b5090506000805b600254821015610e60576000828152600c602052604090206004015460ff16151560011415610e4e576000828152600c6020908152604091829020825160a08101845281546001600160a01b03168152600182015492810192909252600281015492820192909252600382018054919291606084019190610d849061216d565b80601f0160208091040260200160405190810160405280929190818152602001828054610db09061216d565b8015610dfd5780601f10610dd257610100808354040283529160200191610dfd565b820191906000526020600020905b815481529060010190602001808311610de057829003601f168201915b50505091835250506004919091015460ff1615156020909101528382610e22816121a8565b935081518110610e4257634e487b7160e01b600052603260045260246000fd5b60200260200101819052505b81610e58816121a8565b925050610d04565b509092915050565b610e70611b0c565b6000828152600c60209081526040808320815160a08101835281546001600160a01b03168152600182015493810193909352600281015491830191909152600381018054606084019190610ec39061216d565b80601f0160208091040260200160405190810160405280929190818152602001828054610eef9061216d565b8015610f3c5780601f10610f1157610100808354040283529160200191610f3c565b820191906000526020600020905b815481529060010190602001808311610f1f57829003601f168201915b50505091835250506004919091015460ff161515602090910152608081015190915015156001146104e65760405162461bcd60e51b81526020600482015260126024820152712737ba1037b33332b932b2103a37b5b2b71760711b60448201526064016107ae565b6060610faf826110cf565b610fcc57604051630a14c4b560e41b815260040160405180910390fd5b6000610fd66114f9565b9050805160001415610ff75760405180602001604052806000815250611022565b8061100184611856565b604051602001611012929190611f7b565b6040516020818303038152906040525b9392505050565b60006104e68261196f565b6000546001600160a01b0316331461105e5760405162461bcd60e51b81526004016107ae9061209f565b6001600160a01b0381166110c35760405162461bcd60e51b815260206004820152602660248201527f4f776e61626c653a206e6577206f776e657220697320746865207a65726f206160448201526564647265737360d01b60648201526084016107ae565b6110cc81611508565b50565b6000600254821080156104e6575050600090815260066020526040902054600160e01b900460ff161590565b60008281526008602052604080822080546001600160a01b0319166001600160a01b0387811691821790925591518593918516917f8c5be1e5ebec7d5bd14f71427d1e84f3dd0314c0f7b2291e5b200ac8c7c3b92591a4505050565b6000611162826113de565b80519091506000906001600160a01b0316336001600160a01b03161480611190575081516111909033610459565b806111ab5750336111a084610673565b6001600160a01b0316145b9050806111cb57604051632ce44b5f60e11b815260040160405180910390fd5b846001600160a01b031682600001516001600160a01b0316146112005760405162a1148160e81b815260040160405180910390fd5b6001600160a01b03841661122757604051633a954ecd60e21b815260040160405180910390fd5b61123485858560016119c4565b61124460008484600001516110fb565b6001600160a01b038581166000908152600760209081526040808320805467ffffffffffffffff198082166001600160401b0392831660001901831617909255898616808652838620805493841693831660019081018416949094179055898652600690945282852080546001600160e01b031916909417600160a01b42909216919091021790925590860180835291205490911661132e5760025481101561132e57825160008281526006602090815260409091208054918601516001600160401b0316600160a01b026001600160e01b03199092166001600160a01b03909316929092171790555b5082846001600160a01b0316866001600160a01b03167fddf252ad1be2c89b69c2b068fc378daa952ba7f163c4a11628f55a4df523b3ef60405160405180910390a45b5050505050565b6001600160a01b03821661139f5760405163561b93dd60e11b815260040160405180910390fd5b6001600160a01b03909116600090815260076020526040902080546001600160401b03909216600160c01b026001600160c01b03909216919091179055565b604080516060810182526000808252602082018190529181019190915260025482908110156114e057600081815260066020908152604091829020825160608101845290546001600160a01b0381168252600160a01b81046001600160401b031692820192909252600160e01b90910460ff161515918101829052906114de5780516001600160a01b031615611475579392505050565b5060001901600081815260066020908152604091829020825160608101845290546001600160a01b038116808352600160a01b82046001600160401b031693830193909352600160e01b900460ff16151592810192909252156114d9579392505050565b611475565b505b604051636f96cda160e11b815260040160405180910390fd5b6060600180546105f09061216d565b600080546001600160a01b038381166001600160a01b0319831681178455604051919092169283917f8be0079c531659141344cd1fd0a4f28419497f9722a3daafe3b4186f6b6457e09190a35050565b610740838383600161157f565b610775828260405180602001604052806000815250611558565b6002546001600160a01b0385166115a857604051622e076360e81b815260040160405180910390fd5b836115c65760405163b562e8dd60e01b815260040160405180910390fd5b6115d360008683876119c4565b6001600160a01b038516600081815260076020908152604080832080546fffffffffffffffffffffffffffffffff1981166001600160401b038083168c018116918217600160401b67ffffffffffffffff1990941690921783900481168c018116909202179091558584526006909252822080546001600160e01b031916909317600160a01b42909216919091021790915581905b858110156116e95760405182906001600160a01b038916906000907fddf252ad1be2c89b69c2b068fc378daa952ba7f163c4a11628f55a4df523b3ef908290a48380156116bf57506116bd60008884886116f2565b155b156116dd576040516368d2bf6b60e11b815260040160405180910390fd5b60019182019101611668565b50600255611371565b60006001600160a01b0384163b156117f557604051630a85bd0160e11b81526001600160a01b0385169063150b7a0290611736903390899088908890600401611faa565b602060405180830381600087803b15801561175057600080fd5b505af1925050508015611780575060408051601f3d908101601f1916820190925261177d91810190611e61565b60015b6117db573d8080156117ae576040519150601f19603f3d011682016040523d82523d6000602084013e6117b3565b606091505b5080516117d3576040516368d2bf6b60e11b815260040160405180910390fd5b805181602001fd5b6001600160e01b031916630a85bd0160e11b1490506117f9565b5060015b949350505050565b60006001600160a01b03821661182a5760405163561b93dd60e11b815260040160405180910390fd5b506001600160a01b0316600090815260076020526040902054600160c01b90046001600160401b031690565b60608161187a5750506040805180820190915260018152600360fc1b602082015290565b8160005b81156118a4578061188e816121a8565b915061189d9050600a836120ff565b915061187e565b6000816001600160401b038111156118cc57634e487b7160e01b600052604160045260246000fd5b6040519080825280601f01601f1916602001820160405280156118f6576020820181803683370190505b5090505b84156117f95761190b600183612113565b9150611918600a866121c3565b6119239060306120e7565b60f81b81838151811061194657634e487b7160e01b600052603260045260246000fd5b60200101906001600160f81b031916908160001a905350611968600a866120ff565b94506118fa565b60006001600160a01b038216611998576040516335ebb31960e01b815260040160405180910390fd5b506001600160a01b0316600090815260076020526040902054600160401b90046001600160401b031690565b826001600160a01b0316846001600160a01b03161415611a265760405162461bcd60e51b815260206004820152601d60248201527f43616e2774207472616e7366657220746f2073616d65206f776e65722e00000060448201526064016107ae565b8060011415610a81576000828152600c602052604090206004015460ff16151560011415610a81576000828152600c6020526040902080546001600160a01b0385166001600160a01b0319909116178155600401805460ff1916905550505050565b828054611a949061216d565b90600052602060002090601f016020900481019282611ab65760008555611afc565b82601f10611acf57805160ff1916838001178555611afc565b82800160010185558215611afc579182015b82811115611afc578251825591602001919060010190611ae1565b50611b08929150611b46565b5090565b6040518060a0016040528060006001600160a01b031681526020016000815260200160008152602001606081526020016000151581525090565b5b80821115611b085760008155600101611b47565b80356001600160a01b0381168114611b7257600080fd5b919050565b80358015158114611b7257600080fd5b600082601f830112611b97578081fd5b81356001600160401b0380821115611bb157611bb1612203565b604051601f8301601f19908116603f01168101908282118183101715611bd957611bd9612203565b81604052838152866020858801011115611bf1578485fd5b8360208701602083013792830160200193909352509392505050565b600060208284031215611c1e578081fd5b61102282611b5b565b60008060408385031215611c39578081fd5b611c4283611b5b565b9150611c5060208401611b5b565b90509250929050565b600080600060608486031215611c6d578081fd5b611c7684611b5b565b9250611c8460208501611b5b565b9150604084013590509250925092565b60008060008060808587031215611ca9578081fd5b611cb285611b5b565b9350611cc060208601611b5b565b92506040850135915060608501356001600160401b03811115611ce1578182fd5b611ced87828801611b87565b91505092959194509250565b60008060408385031215611d0b578182fd5b611d1483611b5b565b9150611c5060208401611b77565b60008060408385031215611d34578182fd5b611d3d83611b5b565b946020939093013593505050565b600080600060608486031215611d5f578283fd5b611d6884611b5b565b92506020840135915060408401356001600160401b03811115611d89578182fd5b611d9586828701611b87565b9150509250925092565b60008060008060808587031215611db4578384fd5b611dbd85611b5b565b93506020850135925060408501356001600160401b03811115611dde578283fd5b611dea87828801611b87565b925050611df960608601611b77565b905092959194509250565b60008060408385031215611e16578182fd5b611e1f83611b5b565b915060208301356001600160401b0381168114611e3a578182fd5b809150509250929050565b600060208284031215611e56578081fd5b813561102281612219565b600060208284031215611e72578081fd5b815161102281612219565b600060208284031215611e8e578081fd5b81356001600160401b03811115611ea3578182fd5b6117f984828501611b87565b600060208284031215611ec0578081fd5b5035919050565b600080600060608486031215611edb578081fd5b833592506020840135915060408401356001600160401b03811115611d89578182fd5b60008151808452611f1681602086016020860161212a565b601f01601f19169290920160200192915050565b60018060a01b03815116825260208101516020830152604081015160408301526000606082015160a06060850152611f6560a0850182611efe565b6080938401511515949093019390935250919050565b60008351611f8d81846020880161212a565b835190830190611fa181836020880161212a565b01949350505050565b6001600160a01b0385811682528416602082015260408101839052608060608201819052600090611fdd90830184611efe565b9695505050505050565b6000602080830181845280855180835260408601915060408160051b8701019250838701855b8281101561203b57603f19888603018452612029858351611f2a565b9450928501929085019060010161200d565b5092979650505050505050565b6020808252825182820181905260009190848201906040850190845b8181101561208057835183529284019291840191600101612064565b50909695505050505050565b6020815260006110226020830184611efe565b6020808252818101527f4f776e61626c653a2063616c6c6572206973206e6f7420746865206f776e6572604082015260600190565b6020815260006110226020830184611f2a565b600082198211156120fa576120fa6121d7565b500190565b60008261210e5761210e6121ed565b500490565b600082821015612125576121256121d7565b500390565b60005b8381101561214557818101518382015260200161212d565b83811115610a815750506000910152565b600081612165576121656121d7565b506000190190565b600181811c9082168061218157607f821691505b602082108114156121a257634e487b7160e01b600052602260045260246000fd5b50919050565b60006000198214156121bc576121bc6121d7565b5060010190565b6000826121d2576121d26121ed565b500690565b634e487b7160e01b600052601160045260246000fd5b634e487b7160e01b600052601260045260246000fd5b634e487b7160e01b600052604160045260246000fd5b6001600160e01b0319811681146110cc57600080fdfea26469706673582212204d693af5f593b5d034a2e33ea7972d4edfb50286e75a2b2148c6da913af2eb5864736f6c63430008040033",
  "linkReferences": {},
  "deployedLinkReferences": {}
}