{
  "_format": "hh-sol-artifact-1",
  "contractName": "ConvertNFT",
  "sourceName": "contracts/convertNFT.sol",
  "abi": [
    {
      "inputs": [
        {
          "internalType": "string",
          "name": "_name",
          "type": "string"
        },
        {
          "internalType": "string",
          "name": "_symbol",
          "type": "string"
        }
      ],
      "stateMutability": "nonpayable",
      "type": "constructor"
    },
    {
      "anonymous": false,
      "inputs": [
        {
          "indexed": true,
          "internalType": "address",
          "name": "owner",
          "type": "address"
        },
        {
          "indexed": true,
          "internalType": "address",
          "name": "approved",
          "type": "address"
        },
        {
          "indexed": true,
          "internalType": "uint256",
          "name": "tokenId",
          "type": "uint256"
        }
      ],
      "name": "Approval",
      "type": "event"
    },
    {
      "anonymous": false,
      "inputs": [
        {
          "indexed": true,
          "internalType": "address",
          "name": "owner",
          "type": "address"
        },
        {
          "indexed": true,
          "internalType": "address",
          "name": "operator",
          "type": "address"
        },
        {
          "indexed": false,
          "internalType": "bool",
          "name": "approved",
          "type": "bool"
        }
      ],
      "name": "ApprovalForAll",
      "type": "event"
    },
    {
      "anonymous": false,
      "inputs": [
        {
          "indexed": true,
          "internalType": "address",
          "name": "previousOwner",
          "type": "address"
        },
        {
          "indexed": true,
          "internalType": "address",
          "name": "newOwner",
          "type": "address"
        }
      ],
      "name": "OwnershipTransferred",
      "type": "event"
    },
    {
      "anonymous": false,
      "inputs": [
        {
          "indexed": true,
          "internalType": "address",
          "name": "from",
          "type": "address"
        },
        {
          "indexed": true,
          "internalType": "address",
          "name": "to",
          "type": "address"
        },
        {
          "indexed": true,
          "internalType": "uint256",
          "name": "tokenId",
          "type": "uint256"
        }
      ],
      "name": "Transfer",
      "type": "event"
    },
    {
      "anonymous": false,
      "inputs": [
        {
          "indexed": false,
          "internalType": "string",
          "name": "hash",
          "type": "string"
        },
        {
          "indexed": false,
          "internalType": "uint256",
          "name": "id",
          "type": "uint256"
        },
        {
          "indexed": false,
          "internalType": "uint8",
          "name": "converType",
          "type": "uint8"
        }
      ],
      "name": "converted",
      "type": "event"
    },
    {
      "inputs": [
        {
          "internalType": "address",
          "name": "to",
          "type": "address"
        },
        {
          "internalType": "uint256",
          "name": "tokenId",
          "type": "uint256"
        }
      ],
      "name": "approve",
      "outputs": [],
      "stateMutability": "nonpayable",
      "type": "function"
    },
    {
      "inputs": [
        {
          "internalType": "address",
          "name": "owner",
          "type": "address"
        }
      ],
      "name": "balanceOf",
      "outputs": [
        {
          "internalType": "uint256",
          "name": "",
          "type": "uint256"
        }
      ],
      "stateMutability": "view",
      "type": "function"
    },
    {
      "inputs": [
        {
          "internalType": "string",
          "name": "_tokenURI",
          "type": "string"
        },
        {
          "internalType": "uint8",
          "name": "_convertType",
          "type": "uint8"
        }
      ],
      "name": "convertNFT",
      "outputs": [],
      "stateMutability": "nonpayable",
      "type": "function"
    },
    {
      "inputs": [
        {
          "internalType": "uint256",
          "name": "tokenId",
          "type": "uint256"
        }
      ],
      "name": "getApproved",
      "outputs": [
        {
          "internalType": "address",
          "name": "",
          "type": "address"
        }
      ],
      "stateMutability": "view",
      "type": "function"
    },
    {
      "inputs": [],
      "name": "getMintedAmount",
      "outputs": [
        {
          "internalType": "uint256",
          "name": "",
          "type": "uint256"
        }
      ],
      "stateMutability": "view",
      "type": "function"
    },
    {
      "inputs": [],
      "name": "getMyTokens",
      "outputs": [
        {
          "components": [
            {
              "internalType": "uint256",
              "name": "id",
              "type": "uint256"
            },
            {
              "internalType": "string",
              "name": "uri",
              "type": "string"
            },
            {
              "internalType": "address",
              "name": "owner",
              "type": "address"
            }
          ],
          "internalType": "struct ConvertNFT.RenderToken[]",
          "name": "",
          "type": "tuple[]"
        }
      ],
      "stateMutability": "view",
      "type": "function"
    },
    {
      "inputs": [
        {
          "internalType": "address",
          "name": "owner",
          "type": "address"
        },
        {
          "internalType": "address",
          "name": "operator",
          "type": "address"
        }
      ],
      "name": "isApprovedForAll",
      "outputs": [
        {
          "internalType": "bool",
          "name": "",
          "type": "bool"
        }
      ],
      "stateMutability": "view",
      "type": "function"
    },
    {
      "inputs": [],
      "name": "name",
      "outputs": [
        {
          "internalType": "string",
          "name": "",
          "type": "string"
        }
      ],
      "stateMutability": "view",
      "type": "function"
    },
    {
      "inputs": [],
      "name": "owner",
      "outputs": [
        {
          "internalType": "address",
          "name": "",
          "type": "address"
        }
      ],
      "stateMutability": "view",
      "type": "function"
    },
    {
      "inputs": [
        {
          "internalType": "uint256",
          "name": "tokenId",
          "type": "uint256"
        }
      ],
      "name": "ownerOf",
      "outputs": [
        {
          "internalType": "address",
          "name": "",
          "type": "address"
        }
      ],
      "stateMutability": "view",
      "type": "function"
    },
    {
      "inputs": [],
      "name": "renounceOwnership",
      "outputs": [],
      "stateMutability": "nonpayable",
      "type": "function"
    },
    {
      "inputs": [
        {
          "internalType": "address",
          "name": "from",
          "type": "address"
        },
        {
          "internalType": "address",
          "name": "to",
          "type": "address"
        },
        {
          "internalType": "uint256",
          "name": "tokenId",
          "type": "uint256"
        }
      ],
      "name": "safeTransferFrom",
      "outputs": [],
      "stateMutability": "nonpayable",
      "type": "function"
    },
    {
      "inputs": [
        {
          "internalType": "address",
          "name": "from",
          "type": "address"
        },
        {
          "internalType": "address",
          "name": "to",
          "type": "address"
        },
        {
          "internalType": "uint256",
          "name": "tokenId",
          "type": "uint256"
        },
        {
          "internalType": "bytes",
          "name": "_data",
          "type": "bytes"
        }
      ],
      "name": "safeTransferFrom",
      "outputs": [],
      "stateMutability": "nonpayable",
      "type": "function"
    },
    {
      "inputs": [
        {
          "internalType": "address",
          "name": "operator",
          "type": "address"
        },
        {
          "internalType": "bool",
          "name": "approved",
          "type": "bool"
        }
      ],
      "name": "setApprovalForAll",
      "outputs": [],
      "stateMutability": "nonpayable",
      "type": "function"
    },
    {
      "inputs": [
        {
          "internalType": "bytes4",
          "name": "interfaceId",
          "type": "bytes4"
        }
      ],
      "name": "supportsInterface",
      "outputs": [
        {
          "internalType": "bool",
          "name": "",
          "type": "bool"
        }
      ],
      "stateMutability": "view",
      "type": "function"
    },
    {
      "inputs": [],
      "name": "symbol",
      "outputs": [
        {
          "internalType": "string",
          "name": "",
          "type": "string"
        }
      ],
      "stateMutability": "view",
      "type": "function"
    },
    {
      "inputs": [
        {
          "internalType": "uint256",
          "name": "_tokenId",
          "type": "uint256"
        }
      ],
      "name": "tokenURI",
      "outputs": [
        {
          "internalType": "string",
          "name": "",
          "type": "string"
        }
      ],
      "stateMutability": "view",
      "type": "function"
    },
    {
      "inputs": [
        {
          "internalType": "address",
          "name": "from",
          "type": "address"
        },
        {
          "internalType": "address",
          "name": "to",
          "type": "address"
        },
        {
          "internalType": "uint256",
          "name": "tokenId",
          "type": "uint256"
        }
      ],
      "name": "transferFrom",
      "outputs": [],
      "stateMutability": "nonpayable",
      "type": "function"
    },
    {
      "inputs": [
        {
          "internalType": "address",
          "name": "newOwner",
          "type": "address"
        }
      ],
      "name": "transferOwnership",
      "outputs": [],
      "stateMutability": "nonpayable",
      "type": "function"
    }
  ],
  "bytecode": "0x60806040523480156200001157600080fd5b5060405162001c7d38038062001c7d83398101604081905262000034916200022f565b8151829082906200004d906000906020850190620000de565b50805162000063906001906020840190620000de565b505050620000806200007a6200008860201b60201c565b6200008c565b5050620002e9565b3390565b600680546001600160a01b038381166001600160a01b0319831681179093556040519116919082907f8be0079c531659141344cd1fd0a4f28419497f9722a3daafe3b4186f6b6457e090600090a35050565b828054620000ec9062000296565b90600052602060002090601f0160209004810192826200011057600085556200015b565b82601f106200012b57805160ff19168380011785556200015b565b828001600101855582156200015b579182015b828111156200015b5782518255916020019190600101906200013e565b50620001699291506200016d565b5090565b5b808211156200016957600081556001016200016e565b600082601f83011262000195578081fd5b81516001600160401b0380821115620001b257620001b2620002d3565b6040516020601f8401601f1916820181018381118382101715620001da57620001da620002d3565b6040528382528584018101871015620001f1578485fd5b8492505b83831015620002145785830181015182840182015291820191620001f5565b838311156200022557848185840101525b5095945050505050565b6000806040838503121562000242578182fd5b82516001600160401b038082111562000259578384fd5b620002678683870162000184565b935060208501519150808211156200027d578283fd5b506200028c8582860162000184565b9150509250929050565b600281046001821680620002ab57607f821691505b60208210811415620002cd57634e487b7160e01b600052602260045260246000fd5b50919050565b634e487b7160e01b600052604160045260246000fd5b61198480620002f96000396000f3fe608060405234801561001057600080fd5b50600436106101215760003560e01c806370a08231116100ad578063a22cb46511610071578063a22cb4651461023a578063b88d4fde1461024d578063c87b56dd14610260578063e985e9c514610273578063f2fde38b1461028657610121565b806370a08231146101fa578063715018a61461021a57806388ab4168146102225780638da5cb5b1461022a57806395d89b411461023257610121565b806323b872dd116100f457806323b872dd14610199578063396a9c6b146101ac57806342842e0e146101bf5780635b3b136a146101d25780636352211e146101e757610121565b806301ffc9a71461012657806306fdde031461014f578063081812fc14610164578063095ea7b314610184575b600080fd5b610139610134366004611224565b610299565b60405161014691906113f1565b60405180910390f35b6101576102e1565b60405161014691906113fc565b6101776101723660046112b9565b610373565b6040516101469190611319565b6101976101923660046111fb565b6103bf565b005b6101976101a736600461110d565b610457565b6101976101ba36600461125c565b61048f565b6101976101cd36600461110d565b61059d565b6101da6105b8565b604051610146919061136a565b6101776101f53660046112b9565b61071c565b61020d6102083660046110c1565b610751565b6040516101469190611852565b610197610795565b61020d6107e0565b6101776107f1565b610157610800565b6101976102483660046111c1565b61080f565b61019761025b366004611148565b610825565b61015761026e3660046112b9565b610864565b6101396102813660046110db565b610917565b6101976102943660046110c1565b610945565b60006001600160e01b031982166380ac58cd60e01b14806102ca57506001600160e01b03198216635b5e139f60e01b145b806102d957506102d9826109b6565b90505b919050565b6060600080546102f0906118b6565b80601f016020809104026020016040519081016040528092919081815260200182805461031c906118b6565b80156103695780601f1061033e57610100808354040283529160200191610369565b820191906000526020600020905b81548152906001019060200180831161034c57829003601f168201915b5050505050905090565b600061037e826109cf565b6103a35760405162461bcd60e51b815260040161039a906116f6565b60405180910390fd5b506000908152600460205260409020546001600160a01b031690565b60006103ca8261071c565b9050806001600160a01b0316836001600160a01b031614156103fe5760405162461bcd60e51b815260040161039a906117c0565b806001600160a01b03166104106109ec565b6001600160a01b0316148061042c575061042c816102816109ec565b6104485760405162461bcd60e51b815260040161039a906115d1565b61045283836109f0565b505050565b6104686104626109ec565b82610a5e565b6104845760405162461bcd60e51b815260040161039a90611801565b610452838383610ae3565b600061049b6007610c10565b90506000836040516020016104b091906112fd565b60405160208183030381529060405290506104cb3383610c14565b6104d58282610cf3565b6104df6007610d12565b6000828152600960205260408120805460ff191660ff861617905561052c90600190600a9061050c6109ec565b6001600160a01b0316815260208101919091526040016000205490610d1b565b600a60006105386109ec565b6001600160a01b03166001600160a01b03168152602001908152602001600020819055507f8cbe25a6ee49799bbaa904b18cfa5bc31aaf5f9d15dfcdd98a983a75a64413ea81838560405161058f9392919061140f565b60405180910390a150505050565b61045283838360405180602001604052806000815250610825565b606060006105c66007610c10565b905060008080600a60006105d86109ec565b6001600160a01b03166001600160a01b0316815260200190815260200160002054905060008167ffffffffffffffff81111561062457634e487b7160e01b600052604160045260246000fd5b60405190808252806020026020018201604052801561065d57816020015b61064a610f77565b8152602001906001900390816106425790505b509050600092505b8483101561071357610676836109cf565b80156106925750336106878461071c565b6001600160a01b0316145b156107015760006106a284610864565b90506040518060600160405280858152602001828152602001336001600160a01b03168152508286806106d4906118f1565b9750815181106106f457634e487b7160e01b600052603260045260246000fd5b6020026020010181905250505b8261070b816118f1565b935050610665565b94505050505090565b6000818152600260205260408120546001600160a01b0316806102d95760405162461bcd60e51b815260040161039a90611678565b60006001600160a01b0382166107795760405162461bcd60e51b815260040161039a9061162e565b506001600160a01b031660009081526003602052604090205490565b61079d6109ec565b6001600160a01b03166107ae6107f1565b6001600160a01b0316146107d45760405162461bcd60e51b815260040161039a90611742565b6107de6000610d2e565b565b60006107ec6007610c10565b905090565b6006546001600160a01b031690565b6060600180546102f0906118b6565b61082161081a6109ec565b8383610d80565b5050565b6108366108306109ec565b83610a5e565b6108525760405162461bcd60e51b815260040161039a90611801565b61085e84848484610e23565b50505050565b606061086f826109cf565b61087857600080fd5b60008281526008602052604081208054610891906118b6565b80601f01602080910402602001604051908101604052809291908181526020018280546108bd906118b6565b801561090a5780601f106108df5761010080835404028352916020019161090a565b820191906000526020600020905b8154815290600101906020018083116108ed57829003601f168201915b5093979650505050505050565b6001600160a01b03918216600090815260056020908152604080832093909416825291909152205460ff1690565b61094d6109ec565b6001600160a01b031661095e6107f1565b6001600160a01b0316146109845760405162461bcd60e51b815260040161039a90611742565b6001600160a01b0381166109aa5760405162461bcd60e51b815260040161039a9061148d565b6109b381610d2e565b50565b6001600160e01b031981166301ffc9a760e01b14919050565b6000908152600260205260409020546001600160a01b0316151590565b3390565b600081815260046020526040902080546001600160a01b0319166001600160a01b0384169081179091558190610a258261071c565b6001600160a01b03167f8c5be1e5ebec7d5bd14f71427d1e84f3dd0314c0f7b2291e5b200ac8c7c3b92560405160405180910390a45050565b6000610a69826109cf565b610a855760405162461bcd60e51b815260040161039a90611585565b6000610a908361071c565b9050806001600160a01b0316846001600160a01b03161480610acb5750836001600160a01b0316610ac084610373565b6001600160a01b0316145b80610adb5750610adb8185610917565b949350505050565b826001600160a01b0316610af68261071c565b6001600160a01b031614610b1c5760405162461bcd60e51b815260040161039a90611777565b6001600160a01b038216610b425760405162461bcd60e51b815260040161039a9061150a565b610b4d838383610452565b610b586000826109f0565b6001600160a01b0383166000908152600360205260408120805460019290610b81908490611873565b90915550506001600160a01b0382166000908152600360205260408120805460019290610baf90849061185b565b909155505060008181526002602052604080822080546001600160a01b0319166001600160a01b0386811691821790925591518493918716917fddf252ad1be2c89b69c2b068fc378daa952ba7f163c4a11628f55a4df523b3ef91a4505050565b5490565b6001600160a01b038216610c3a5760405162461bcd60e51b815260040161039a906116c1565b610c43816109cf565b15610c605760405162461bcd60e51b815260040161039a906114d3565b610c6c60008383610452565b6001600160a01b0382166000908152600360205260408120805460019290610c9590849061185b565b909155505060008181526002602052604080822080546001600160a01b0319166001600160a01b03861690811790915590518392907fddf252ad1be2c89b69c2b068fc378daa952ba7f163c4a11628f55a4df523b3ef908290a45050565b6000828152600860209081526040909120825161045292840190610fa1565b80546001019055565b6000610d27828461185b565b9392505050565b600680546001600160a01b038381166001600160a01b0319831681179093556040519116919082907f8be0079c531659141344cd1fd0a4f28419497f9722a3daafe3b4186f6b6457e090600090a35050565b816001600160a01b0316836001600160a01b03161415610db25760405162461bcd60e51b815260040161039a9061154e565b6001600160a01b0383811660008181526005602090815260408083209487168084529490915290819020805460ff1916851515179055517f17307eab39ab6107e8899845ad3d59bd9653f200f220920489ca2b5937696c3190610e169085906113f1565b60405180910390a3505050565b610e2e848484610ae3565b610e3a84848484610e56565b61085e5760405162461bcd60e51b815260040161039a9061143b565b6000610e6a846001600160a01b0316610f71565b15610f6657836001600160a01b031663150b7a02610e866109ec565b8786866040518563ffffffff1660e01b8152600401610ea8949392919061132d565b602060405180830381600087803b158015610ec257600080fd5b505af1925050508015610ef2575060408051601f3d908101601f19168201909252610eef91810190611240565b60015b610f4c573d808015610f20576040519150601f19603f3d011682016040523d82523d6000602084013e610f25565b606091505b508051610f445760405162461bcd60e51b815260040161039a9061143b565b805181602001fd5b6001600160e01b031916630a85bd0160e11b149050610adb565b506001949350505050565b3b151590565b6040518060600160405280600081526020016060815260200160006001600160a01b031681525090565b828054610fad906118b6565b90600052602060002090601f016020900481019282610fcf5760008555611015565b82601f10610fe857805160ff1916838001178555611015565b82800160010185558215611015579182015b82811115611015578251825591602001919060010190610ffa565b50611021929150611025565b5090565b5b808211156110215760008155600101611026565b600067ffffffffffffffff8084111561105557611055611922565b604051601f8501601f19168101602001828111828210171561107957611079611922565b60405284815291508183850186101561109157600080fd5b8484602083013760006020868301015250509392505050565b80356001600160a01b03811681146102dc57600080fd5b6000602082840312156110d2578081fd5b610d27826110aa565b600080604083850312156110ed578081fd5b6110f6836110aa565b9150611104602084016110aa565b90509250929050565b600080600060608486031215611121578081fd5b61112a846110aa565b9250611138602085016110aa565b9150604084013590509250925092565b6000806000806080858703121561115d578081fd5b611166856110aa565b9350611174602086016110aa565b925060408501359150606085013567ffffffffffffffff811115611196578182fd5b8501601f810187136111a6578182fd5b6111b58782356020840161103a565b91505092959194509250565b600080604083850312156111d3578182fd5b6111dc836110aa565b9150602083013580151581146111f0578182fd5b809150509250929050565b6000806040838503121561120d578182fd5b611216836110aa565b946020939093013593505050565b600060208284031215611235578081fd5b8135610d2781611938565b600060208284031215611251578081fd5b8151610d2781611938565b6000806040838503121561126e578182fd5b823567ffffffffffffffff811115611284578283fd5b8301601f81018513611294578283fd5b6112a38582356020840161103a565b925050602083013560ff811681146111f0578182fd5b6000602082840312156112ca578081fd5b5035919050565b600081518084526112e981602086016020860161188a565b601f01601f19169290920160200192915050565b6000825161130f81846020870161188a565b9190910192915050565b6001600160a01b0391909116815260200190565b6001600160a01b0385811682528416602082015260408101839052608060608201819052600090611360908301846112d1565b9695505050505050565b60208082528251828201819052600091906040908185019080840286018301878501865b838110156113e357603f19898403018552815160608151855288820151818a8701526113bc828701826112d1565b928901516001600160a01b031695890195909552509487019492509086019060010161138e565b509098975050505050505050565b901515815260200190565b600060208252610d2760208301846112d1565b60006060825261142260608301866112d1565b905083602083015260ff83166040830152949350505050565b60208082526032908201527f4552433732313a207472616e7366657220746f206e6f6e20455243373231526560408201527131b2b4bb32b91034b6b83632b6b2b73a32b960711b606082015260800190565b60208082526026908201527f4f776e61626c653a206e6577206f776e657220697320746865207a65726f206160408201526564647265737360d01b606082015260800190565b6020808252601c908201527f4552433732313a20746f6b656e20616c7265616479206d696e74656400000000604082015260600190565b60208082526024908201527f4552433732313a207472616e7366657220746f20746865207a65726f206164646040820152637265737360e01b606082015260800190565b60208082526019908201527f4552433732313a20617070726f766520746f2063616c6c657200000000000000604082015260600190565b6020808252602c908201527f4552433732313a206f70657261746f7220717565727920666f72206e6f6e657860408201526b34b9ba32b73a103a37b5b2b760a11b606082015260800190565b60208082526038908201527f4552433732313a20617070726f76652063616c6c6572206973206e6f74206f7760408201527f6e6572206e6f7220617070726f76656420666f7220616c6c0000000000000000606082015260800190565b6020808252602a908201527f4552433732313a2062616c616e636520717565727920666f7220746865207a65604082015269726f206164647265737360b01b606082015260800190565b60208082526029908201527f4552433732313a206f776e657220717565727920666f72206e6f6e657869737460408201526832b73a103a37b5b2b760b91b606082015260800190565b6020808252818101527f4552433732313a206d696e7420746f20746865207a65726f2061646472657373604082015260600190565b6020808252602c908201527f4552433732313a20617070726f76656420717565727920666f72206e6f6e657860408201526b34b9ba32b73a103a37b5b2b760a11b606082015260800190565b6020808252818101527f4f776e61626c653a2063616c6c6572206973206e6f7420746865206f776e6572604082015260600190565b60208082526029908201527f4552433732313a207472616e73666572206f6620746f6b656e2074686174206960408201526839903737ba1037bbb760b91b606082015260800190565b60208082526021908201527f4552433732313a20617070726f76616c20746f2063757272656e74206f776e656040820152603960f91b606082015260800190565b60208082526031908201527f4552433732313a207472616e736665722063616c6c6572206973206e6f74206f6040820152701ddb995c881b9bdc88185c1c1c9bdd9959607a1b606082015260800190565b90815260200190565b6000821982111561186e5761186e61190c565b500190565b6000828210156118855761188561190c565b500390565b60005b838110156118a557818101518382015260200161188d565b8381111561085e5750506000910152565b6002810460018216806118ca57607f821691505b602082108114156118eb57634e487b7160e01b600052602260045260246000fd5b50919050565b60006000198214156119055761190561190c565b5060010190565b634e487b7160e01b600052601160045260246000fd5b634e487b7160e01b600052604160045260246000fd5b6001600160e01b0319811681146109b357600080fdfea2646970667358221220f67e78a21cacae76df8892edfda4b0e758f7ab7d537029202882cb26ffe78b6b64736f6c63430008000033",
  "linkReferences": {},
  "deployedLinkReferences": {}
}